{
  "_format": "hh-sol-artifact-1",
  "contractName": "DownPayment",
  "sourceName": "contracts/DownPayment.sol",
  "abi": [
    {
      "inputs": [
        {
          "internalType": "address",
          "name": "admin",
          "type": "address"
        },
        {
          "internalType": "address",
          "name": "payee",
          "type": "address"
        },
        {
          "internalType": "uint256",
          "name": "duration",
          "type": "uint256"
        },
        {
          "internalType": "address",
          "name": "tokenAddress",
          "type": "address"
        },
        {
          "internalType": "address",
          "name": "feeRecipient",
          "type": "address"
        },
        {
          "internalType": "uint256",
          "name": "baseFee",
          "type": "uint256"
        },
        {
          "internalType": "uint256",
          "name": "percentageFee",
          "type": "uint256"
        }
      ],
      "stateMutability": "nonpayable",
      "type": "constructor"
    },
    {
      "anonymous": false,
      "inputs": [
        {
          "indexed": false,
          "internalType": "address",
          "name": "depositorAddress",
          "type": "address"
        },
        {
          "indexed": false,
          "internalType": "uint256",
          "name": "amount",
          "type": "uint256"
        }
      ],
      "name": "DownPaymentDeposited",
      "type": "event"
    },
    {
      "anonymous": false,
      "inputs": [
        {
          "indexed": false,
          "internalType": "address",
          "name": "refundedAddress",
          "type": "address"
        },
        {
          "indexed": false,
          "internalType": "uint256",
          "name": "amount",
          "type": "uint256"
        }
      ],
      "name": "DownPaymentRefunded",
      "type": "event"
    },
    {
      "anonymous": false,
      "inputs": [
        {
          "indexed": false,
          "internalType": "address",
          "name": "withDrawerAddress",
          "type": "address"
        },
        {
          "indexed": false,
          "internalType": "uint256",
          "name": "amount",
          "type": "uint256"
        }
      ],
      "name": "DownPaymentWithdrawn",
      "type": "event"
    },
    {
      "anonymous": false,
      "inputs": [
        {
          "indexed": true,
          "internalType": "bytes32",
          "name": "role",
          "type": "bytes32"
        },
        {
          "indexed": true,
          "internalType": "bytes32",
          "name": "previousAdminRole",
          "type": "bytes32"
        },
        {
          "indexed": true,
          "internalType": "bytes32",
          "name": "newAdminRole",
          "type": "bytes32"
        }
      ],
      "name": "RoleAdminChanged",
      "type": "event"
    },
    {
      "anonymous": false,
      "inputs": [
        {
          "indexed": true,
          "internalType": "bytes32",
          "name": "role",
          "type": "bytes32"
        },
        {
          "indexed": true,
          "internalType": "address",
          "name": "account",
          "type": "address"
        },
        {
          "indexed": true,
          "internalType": "address",
          "name": "sender",
          "type": "address"
        }
      ],
      "name": "RoleGranted",
      "type": "event"
    },
    {
      "anonymous": false,
      "inputs": [
        {
          "indexed": true,
          "internalType": "bytes32",
          "name": "role",
          "type": "bytes32"
        },
        {
          "indexed": true,
          "internalType": "address",
          "name": "account",
          "type": "address"
        },
        {
          "indexed": true,
          "internalType": "address",
          "name": "sender",
          "type": "address"
        }
      ],
      "name": "RoleRevoked",
      "type": "event"
    },
    {
      "inputs": [],
      "name": "ADMIN_ROLE",
      "outputs": [
        {
          "internalType": "bytes32",
          "name": "",
          "type": "bytes32"
        }
      ],
      "stateMutability": "view",
      "type": "function"
    },
    {
      "inputs": [],
      "name": "DEFAULT_ADMIN_ROLE",
      "outputs": [
        {
          "internalType": "bytes32",
          "name": "",
          "type": "bytes32"
        }
      ],
      "stateMutability": "view",
      "type": "function"
    },
    {
      "inputs": [
        {
          "internalType": "address",
          "name": "admin",
          "type": "address"
        }
      ],
      "name": "addAdmin",
      "outputs": [],
      "stateMutability": "nonpayable",
      "type": "function"
    },
    {
      "inputs": [
        {
          "internalType": "uint256",
          "name": "amount",
          "type": "uint256"
        },
        {
          "internalType": "address",
          "name": "payer",
          "type": "address"
        }
      ],
      "name": "deposit",
      "outputs": [],
      "stateMutability": "nonpayable",
      "type": "function"
    },
    {
      "inputs": [],
      "name": "getBalance",
      "outputs": [
        {
          "internalType": "uint256",
          "name": "",
          "type": "uint256"
        }
      ],
      "stateMutability": "view",
      "type": "function"
    },
    {
      "inputs": [],
      "name": "getBaseFee",
      "outputs": [
        {
          "internalType": "uint256",
          "name": "",
          "type": "uint256"
        }
      ],
      "stateMutability": "view",
      "type": "function"
    },
    {
      "inputs": [],
      "name": "getDeadline",
      "outputs": [
        {
          "internalType": "uint256",
          "name": "",
          "type": "uint256"
        }
      ],
      "stateMutability": "view",
      "type": "function"
    },
    {
      "inputs": [],
      "name": "getDeployedAt",
      "outputs": [
        {
          "internalType": "uint256",
          "name": "",
          "type": "uint256"
        }
      ],
      "stateMutability": "view",
      "type": "function"
    },
    {
      "inputs": [
        {
          "internalType": "address",
          "name": "payer",
          "type": "address"
        }
      ],
      "name": "getDepositedAmount",
      "outputs": [
        {
          "internalType": "uint256",
          "name": "",
          "type": "uint256"
        }
      ],
      "stateMutability": "view",
      "type": "function"
    },
    {
      "inputs": [],
      "name": "getDuration",
      "outputs": [
        {
          "internalType": "uint256",
          "name": "",
          "type": "uint256"
        }
      ],
      "stateMutability": "view",
      "type": "function"
    },
    {
      "inputs": [],
      "name": "getFeeRecipient",
      "outputs": [
        {
          "internalType": "address",
          "name": "",
          "type": "address"
        }
      ],
      "stateMutability": "view",
      "type": "function"
    },
    {
      "inputs": [
        {
          "internalType": "uint256",
          "name": "amount",
          "type": "uint256"
        }
      ],
      "name": "getFees",
      "outputs": [
        {
          "internalType": "uint256",
          "name": "",
          "type": "uint256"
        }
      ],
      "stateMutability": "view",
      "type": "function"
    },
    {
      "inputs": [],
      "name": "getLockedAmount",
      "outputs": [
        {
          "internalType": "uint256",
          "name": "",
          "type": "uint256"
        }
      ],
      "stateMutability": "view",
      "type": "function"
    },
    {
      "inputs": [],
      "name": "getOwner",
      "outputs": [
        {
          "internalType": "address",
          "name": "",
          "type": "address"
        }
      ],
      "stateMutability": "view",
      "type": "function"
    },
    {
      "inputs": [],
      "name": "getPayee",
      "outputs": [
        {
          "internalType": "address",
          "name": "",
          "type": "address"
        }
      ],
      "stateMutability": "view",
      "type": "function"
    },
    {
      "inputs": [],
      "name": "getPayers",
      "outputs": [
        {
          "internalType": "address[]",
          "name": "",
          "type": "address[]"
        }
      ],
      "stateMutability": "view",
      "type": "function"
    },
    {
      "inputs": [],
      "name": "getPercentageFee",
      "outputs": [
        {
          "internalType": "uint256",
          "name": "",
          "type": "uint256"
        }
      ],
      "stateMutability": "view",
      "type": "function"
    },
    {
      "inputs": [
        {
          "internalType": "uint256",
          "name": "amount",
          "type": "uint256"
        },
        {
          "internalType": "address",
          "name": "payer",
          "type": "address"
        }
      ],
      "name": "getRefundableAmount",
      "outputs": [
        {
          "internalType": "uint256",
          "name": "",
          "type": "uint256"
        }
      ],
      "stateMutability": "view",
      "type": "function"
    },
    {
      "inputs": [
        {
          "internalType": "address",
          "name": "payer",
          "type": "address"
        }
      ],
      "name": "getRefundedAmount",
      "outputs": [
        {
          "internalType": "uint256",
          "name": "",
          "type": "uint256"
        }
      ],
      "stateMutability": "view",
      "type": "function"
    },
    {
      "inputs": [],
      "name": "getReleasableAmount",
      "outputs": [
        {
          "internalType": "uint256",
          "name": "",
          "type": "uint256"
        }
      ],
      "stateMutability": "view",
      "type": "function"
    },
    {
      "inputs": [],
      "name": "getReleasedAmount",
      "outputs": [
        {
          "internalType": "uint256",
          "name": "",
          "type": "uint256"
        }
      ],
      "stateMutability": "view",
      "type": "function"
    },
    {
      "inputs": [
        {
          "internalType": "bytes32",
          "name": "role",
          "type": "bytes32"
        }
      ],
      "name": "getRoleAdmin",
      "outputs": [
        {
          "internalType": "bytes32",
          "name": "",
          "type": "bytes32"
        }
      ],
      "stateMutability": "view",
      "type": "function"
    },
    {
      "inputs": [],
      "name": "getToken",
      "outputs": [
        {
          "internalType": "contract IERC20",
          "name": "",
          "type": "address"
        }
      ],
      "stateMutability": "view",
      "type": "function"
    },
    {
      "inputs": [],
      "name": "getTokenAddress",
      "outputs": [
        {
          "internalType": "address",
          "name": "",
          "type": "address"
        }
      ],
      "stateMutability": "view",
      "type": "function"
    },
    {
      "inputs": [],
      "name": "getTotalDepositedAmount",
      "outputs": [
        {
          "internalType": "uint256",
          "name": "",
          "type": "uint256"
        }
      ],
      "stateMutability": "view",
      "type": "function"
    },
    {
      "inputs": [],
      "name": "getTotalRefundableAmount",
      "outputs": [
        {
          "internalType": "uint256",
          "name": "",
          "type": "uint256"
        }
      ],
      "stateMutability": "view",
      "type": "function"
    },
    {
      "inputs": [],
      "name": "getTotalRefundedAmount",
      "outputs": [
        {
          "internalType": "uint256",
          "name": "",
          "type": "uint256"
        }
      ],
      "stateMutability": "view",
      "type": "function"
    },
    {
      "inputs": [
        {
          "internalType": "address",
          "name": "payer",
          "type": "address"
        }
      ],
      "name": "getWithdrawableAmount",
      "outputs": [
        {
          "internalType": "uint256",
          "name": "",
          "type": "uint256"
        }
      ],
      "stateMutability": "view",
      "type": "function"
    },
    {
      "inputs": [
        {
          "internalType": "bytes32",
          "name": "role",
          "type": "bytes32"
        },
        {
          "internalType": "address",
          "name": "account",
          "type": "address"
        }
      ],
      "name": "grantRole",
      "outputs": [],
      "stateMutability": "nonpayable",
      "type": "function"
    },
    {
      "inputs": [
        {
          "internalType": "bytes32",
          "name": "role",
          "type": "bytes32"
        },
        {
          "internalType": "address",
          "name": "account",
          "type": "address"
        }
      ],
      "name": "hasRole",
      "outputs": [
        {
          "internalType": "bool",
          "name": "",
          "type": "bool"
        }
      ],
      "stateMutability": "view",
      "type": "function"
    },
    {
      "inputs": [],
      "name": "isExpired",
      "outputs": [
        {
          "internalType": "bool",
          "name": "",
          "type": "bool"
        }
      ],
      "stateMutability": "view",
      "type": "function"
    },
    {
      "inputs": [
        {
          "internalType": "uint256",
          "name": "amount",
          "type": "uint256"
        }
      ],
      "name": "lockFunds",
      "outputs": [],
      "stateMutability": "nonpayable",
      "type": "function"
    },
    {
      "inputs": [
        {
          "internalType": "uint256",
          "name": "amount",
          "type": "uint256"
        }
      ],
      "name": "refundFunds",
      "outputs": [],
      "stateMutability": "nonpayable",
      "type": "function"
    },
    {
      "inputs": [
        {
          "internalType": "uint256",
          "name": "amount",
          "type": "uint256"
        }
      ],
      "name": "releaseFunds",
      "outputs": [],
      "stateMutability": "nonpayable",
      "type": "function"
    },
    {
      "inputs": [
        {
          "internalType": "address",
          "name": "admin",
          "type": "address"
        }
      ],
      "name": "removeAdmin",
      "outputs": [],
      "stateMutability": "nonpayable",
      "type": "function"
    },
    {
      "inputs": [
        {
          "internalType": "bytes32",
          "name": "role",
          "type": "bytes32"
        },
        {
          "internalType": "address",
          "name": "account",
          "type": "address"
        }
      ],
      "name": "renounceRole",
      "outputs": [],
      "stateMutability": "nonpayable",
      "type": "function"
    },
    {
      "inputs": [
        {
          "internalType": "bytes32",
          "name": "role",
          "type": "bytes32"
        },
        {
          "internalType": "address",
          "name": "account",
          "type": "address"
        }
      ],
      "name": "revokeRole",
      "outputs": [],
      "stateMutability": "nonpayable",
      "type": "function"
    },
    {
      "inputs": [
        {
          "internalType": "bytes4",
          "name": "interfaceId",
          "type": "bytes4"
        }
      ],
      "name": "supportsInterface",
      "outputs": [
        {
          "internalType": "bool",
          "name": "",
          "type": "bool"
        }
      ],
      "stateMutability": "view",
      "type": "function"
    },
    {
      "inputs": [
        {
          "internalType": "uint256",
          "name": "baseFee",
          "type": "uint256"
        }
      ],
      "name": "updateBaseFee",
      "outputs": [],
      "stateMutability": "nonpayable",
      "type": "function"
    },
    {
      "inputs": [
        {
          "internalType": "address",
          "name": "feeRecipient",
          "type": "address"
        }
      ],
      "name": "updateFeeRecipient",
      "outputs": [],
      "stateMutability": "nonpayable",
      "type": "function"
    },
    {
      "inputs": [
        {
          "internalType": "uint256",
          "name": "percentageFee",
          "type": "uint256"
        }
      ],
      "name": "updatePercentageFee",
      "outputs": [],
      "stateMutability": "nonpayable",
      "type": "function"
    },
    {
      "inputs": [
        {
          "internalType": "uint256",
          "name": "amount",
          "type": "uint256"
        }
      ],
      "name": "withdraw",
      "outputs": [],
      "stateMutability": "nonpayable",
      "type": "function"
    }
  ],
  "bytecode": "0x608034620003fa57601f620024a138819003918201601f191683019291906001600160401b03841183851017620003ff578160e09284926040968752833981010312620003fa57620000518162000415565b6020916200006183820162000415565b84820151620000736060840162000415565b90620000826080850162000415565b9060c060a08601519501519560018060a01b03809116948515620003a75781169384156200035457821562000310578116928315620002b557169384156200025a5760648711620001f0577fa49807205ce4d355092ef5a8a18f56e8913cf4a201fbe287825b095693c217759060009889918383528282528b8320818452825260ff8c8420541615620001a6575b508282525260018989200198818a549a555198817fbd79b86ffe0ab8e8776151514217cd7cacd52c909f66475c3af44e129f0b00ff8a80a460018060a01b0319928084600154161760015583600254161760025542600455600555816006541617600655600754161760075560085560095580600a5580600c5580600d5580600e5580600f5560115561207690816200042b8239f35b8383528282528b832081845282528b8320805460ff191660011790553390847f2f8788117e7eff1d82e926ec794901d17c78024a50270940304540a733656f0d8580a43862000110565b885162461bcd60e51b815260048101899052603660248201527f446f776e5061796d656e743a2070657263656e74616765206665652063616e6e60448201527f6f742062652067726561746572207468616e20313030000000000000000000006064820152608490fd5b885162461bcd60e51b815260048101899052602e60248201527f446f776e5061796d656e743a2066656520726563697069656e7420697320746860448201526d65207a65726f206164647265737360901b6064820152608490fd5b895162461bcd60e51b8152600481018a9052602e60248201527f446f776e5061796d656e743a20746f6b656e206164647265737320697320746860448201526d65207a65726f206164647265737360901b6064820152608490fd5b895162461bcd60e51b8152600481018a9052601d60248201527f446f776e5061796d656e743a206475726174696f6e206973207a65726f0000006044820152606490fd5b895162461bcd60e51b8152600481018a9052602660248201527f446f776e5061796d656e743a20706179656520697320746865207a65726f206160448201526564647265737360d01b6064820152608490fd5b895162461bcd60e51b8152600481018a9052602660248201527f446f776e5061796d656e743a2061646d696e20697320746865207a65726f206160448201526564647265737360d01b6064820152608490fd5b600080fd5b634e487b7160e01b600052604160045260246000fd5b51906001600160a01b0382168203620003fa5756fe608060408181526004918236101561001657600080fd5b600092833560e01c91826301ffc9a71461162a575081630eb21530146116025781631055d7081461153d57816310fe9ae81461119857816312065fe01461152057816315e812ad1461150157816315f1bbfe146112985781631785f53c146111c157816321df0da714611198578163248a9ca31461116e578163252bc8861461114f5781632e1a7d4d14610ea05781632f13b60c14610e735781632f2ff15d14610dca57816336568abe14610d385781634ccb20c014610d0f5781634d68282f14610b065781635b5b6f5614610a455781635f8d96de14610a225781636a5b5e7c14610a035781636e553f6514610847578163704802751461076c57816375b238fc146107435781638401b96814610724578163893d20e8146106fb5781638c8f95fb146105d75781638e6901861461058357816391d148541461053d578163961006711461051e57816396e9be63146104ff5781639a5569a7146104e0578163a217fddf146104c5578163ad2e8c9b146104a6578163c792562314610488578163cd4467351461045f578163d547741f14610421578163d5a06d4c146103fe578163db7ac399146103df578163e150ff39146103a7578163e9081ec71461036f578163f160d36914610222575063f6777175146101f357600080fd5b3461021e57602036600319011261021e57602090610217610212611698565b611bc6565b9051908152f35b5080fd5b90503461036b57602036600319011261036b5761023d611698565b9060008051602061202183398151915284528360205282842033855260205261026b60ff8486205416611c82565b610277600c5415611cda565b6001600160a01b039182169283156103115760075492831684146102a85750506001600160a01b0319161760075580f35b906020608492519162461bcd60e51b8352820152603d60248201527f446f776e5061796d656e743a206e65772066656520726563697069656e74206960448201527f73207468652073616d65206f66207468652063757272656e74206f6e650000006064820152fd5b906020608492519162461bcd60e51b8352820152602e60248201527f446f776e5061796d656e743a2066656520726563697069656e7420697320746860448201526d65207a65726f206164647265737360901b6064820152fd5b8280fd5b50503461021e57602036600319011261021e5760209181906001600160a01b03610397611698565b168152600b845220549051908152f35b50503461021e57602036600319011261021e5760209181906001600160a01b036103cf611698565b1681526010845220549051908152f35b50503461021e578160031936011261021e57602090600a549051908152f35b82843461041e57602036600319011261041e575061021760209235611b5b565b80fd5b9190503461036b578060031936011261036b5761045c9135610457600161044661167d565b9383875286602052862001546116ae565b611a5d565b80f35b50503461021e578160031936011261021e5760025490516001600160a01b039091168152602090f35b90503461036b578260031936011261036b5760209250549051908152f35b50503461021e578160031936011261021e576020906005549051908152f35b50503461021e578160031936011261021e5751908152602090f35b50503461021e578160031936011261021e57602090600e549051908152f35b50503461021e578160031936011261021e57602090600f549051908152f35b50503461021e578160031936011261021e576020906009549051908152f35b90503461036b578160031936011261036b578160209360ff9261055e61167d565b903582528186528282206001600160a01b039091168252855220549151911615158152f35b9190503461036b57602036600319011261036b5760ff6105c49160008051602061202183398151915285528460205280852033865260205284205416611c82565b6105d0600c5415611cda565b3560085580f35b8391503461021e57602036600319011261021e5780359060008051602061202183398151915283528260205283832033845260205261061b60ff8585205416611c82565b81156106a557600c549061062f8383611afa565b610637611bab565b1061064d57509061064791611afa565b600c5580f35b608490602086519162461bcd60e51b8352820152602c60248201527f446f776e5061796d656e743a2063616e206f6e6c79206c6f636b20757020746f60448201526b207468652062616c616e636560a01b6064820152fd5b608490602085519162461bcd60e51b8352820152602a60248201527f446f776e5061796d656e743a2063616e206f6e6c79206c6f636b20706f7369746044820152691a5d9948185b5bdd5b9d60b21b6064820152fd5b50503461021e578160031936011261021e5760015490516001600160a01b039091168152602090f35b50503461021e578160031936011261021e57602090600d549051908152f35b50503461021e578160031936011261021e57602090516000805160206120218339815191528152f35b50503461021e5760208060031936011261036b57610788611698565b916000805160206120218339815191529283855284835281852033865283526107b660ff8387205416611c82565b6001600160a01b0316916107cb831515611fa5565b8385528481526107e0600183872001546116ae565b838552848152818520838652815260ff8286205416156107fe578480f35b83855284815281852083865290528320805460ff1916600117905533917f2f8788117e7eff1d82e926ec794901d17c78024a50270940304540a733656f0d8480a4388080808480f35b83833461021e578060031936011261021e5782359061086461167d565b9060008051602061202183398151915284528360205280842033855260205261089260ff8286205416611c82565b82156109ab5760018060a01b036108b0848260065416853091611d76565b821694858552600b6020528185205415610923575b5061091d9084957f7cde71e356ccb5016bc93a7043c2df91c9cc4f1ed9af2561adb4de03831595be9552600b602052808620610902858254611afa565b905561091084600a54611afa565b600a555192839283611d5b565b0390a180f35b94600354600160401b811015610998577f7cde71e356ccb5016bc93a7043c2df91c9cc4f1ed9af2561adb4de03831595be9596509061098f8461097084600161091d979601600355611f8a565b90919082549060031b9160018060a01b03809116831b921b1916179055565b959450906108c5565b634e487b7160e01b865260418752602486fd5b5162461bcd60e51b8152602081860152602d60248201527f446f776e5061796d656e743a2063616e206f6e6c79206465706f73697420706f60448201526c1cda5d1a5d9948185b5bdd5b9d609a1b6064820152608490fd5b50503461021e578160031936011261021e576020906011549051908152f35b82843461041e578060031936011261041e57506102176020925460055490611afa565b90503461036b57602036600319011261036b57803591600080516020612021833981519152845283602052808420338552602052610a8860ff8286205416611c82565b610a94600c5415611cda565b60648311610aa457505060095580f35b906020608492519162461bcd60e51b8352820152603660248201527f446f776e5061796d656e743a2070657263656e74616765206665652063616e6e60448201527506f742062652067726561746572207468616e203130360541b6064820152fd5b90503461036b5760209081600319360112610d0b57803560008051602061202183398151915285528483528385203386528352610b4860ff8587205416611c82565b8015610cb357600c548111610c5357610b6081611b5b565b610b6a8183611b2e565b93610b9a818460018060a01b03968760065416908b8b5180968195829463095ea7b360e01b845230908401611d5b565b03925af18015610c4957600080516020612001833981519152979593610c099361091d9693610bdc93610c1b575b505084600654168560075416903090611d76565b610bf28684600654168560025416903090611d76565b610bfe81600c54611b2e565b600c55600e54611afa565b600e5560025416915192839283611d5b565b81610c3a92903d10610c42575b610c3281836119f9565b810190611d43565b503880610bc8565b503d610c28565b87513d8a823e3d90fd5b50915162461bcd60e51b815291820152603560248201527f446f776e5061796d656e743a2063616e206f6e6c792072656c65617365207570604482015274081d1bc81d1a19481b1bd8dad95908185b5bdd5b9d605a1b6064820152608490fd5b50915162461bcd60e51b815291820152602d60248201527f446f776e5061796d656e743a2063616e206f6e6c792072656c6561736520706f60448201526c1cda5d1a5d9948185b5bdd5b9d609a1b6064820152608490fd5b8380fd5b50503461021e578160031936011261021e5760075490516001600160a01b039091168152602090f35b8391503461021e578260031936011261021e57610d5361167d565b90336001600160a01b03831603610d6f579061045c9135611a5d565b608490602085519162461bcd60e51b8352820152602f60248201527f416363657373436f6e74726f6c3a2063616e206f6e6c792072656e6f756e636560448201526e103937b632b9903337b91039b2b63360891b6064820152fd5b90503461036b578160031936011261036b573590610de661167d565b9082845283602052610dfd600182862001546116ae565b82845260208481528185206001600160a01b039093168086529290528084205460ff1615610e29578380f35b828452836020528084208285526020528320600160ff1982541617905533917f2f8788117e7eff1d82e926ec794901d17c78024a50270940304540a733656f0d8480a43880808380f35b82843461041e578060031936011261041e5750610e966020925460055490611afa565b4210159051908152f35b9190503461036b5760209182600319360112610d0b5780359283156110f857610ec833611bc6565b841161109257600654835163095ea7b360e01b81526001600160a01b039291829082908516818a81610efd8c308c8401611d5b565b03925af180156110885790600b929161106b575b50610f228633308660065416611d76565b338752818152848720610f36878254611b2e565b9055338752528285205415610f75575b8460008051602061200183398151915261091d8686610f6782600a54611b2e565b600a55519182913383611d5b565b92909391825b600380548083101561104c5786610f9184611f8a565b905490841b1c163314610fae575050610fa990611f7b565b610f7b565b9091600096939495961991828101908111611039579061097085610fd4610fe194611f8a565b905490871b1c1691611f8a565b81548015611026576000805160206120018339815191529697509061091d9594939291019161100f83611f8a565b9091825491841b1b19169055555b91819350610f46565b634e487b7160e01b875260318852602487fd5b634e487b7160e01b885260118952602488fd5b50505061091d929450600080516020612001833981519152935061101d565b61108190823d8411610c4257610c3281836119f9565b5038610f11565b85513d89823e3d90fd5b608492519162461bcd60e51b8352820152603c60248201527f446f776e5061796d656e743a2063616e206f6e6c79207769746864726177207560448201527f7020746f2074686520776974686472617761626c6520616d6f756e74000000006064820152fd5b608492519162461bcd60e51b8352820152602e60248201527f446f776e5061796d656e743a2063616e206f6e6c79207769746864726177207060448201526d1bdcda5d1a5d9948185b5bdd5b9d60921b6064820152fd5b50503461021e578160031936011261021e57602090600c549051908152f35b90503461036b57602036600319011261036b57816020936001923581528085522001549051908152f35b50503461021e578160031936011261021e5760065490516001600160a01b039091168152602090f35b50503461021e5760208060031936011261036b576111dd611698565b9160008051602061202183398151915292838552848352818520338652835261120b60ff8387205416611c82565b6001600160a01b031691611220831515611fa5565b838552848152611235600183872001546116ae565b838552848152818520838652815260ff8286205416611252578480f35b83855284815281852083865290528320805460ff1916905533917ff6391f5c32d9c69d2a47ea670b442974b53935d1edc7fd64eb21e047a839171b8480a4388080808480f35b90503461036b57602036600319011261036b576000805160206120218339815191528352826020528183203384526020526112d860ff8385205416611c82565b8035156114aa57600c5481351161144b57825b60039081548110156114475761130081611f8a565b90546001600160a01b03939190911b1c821661131d818535611c2e565b9081611335575b50506113309150611f7b565b6112eb565b906113749161134382611b5b565b9461134e8684611b2e565b9260208183600654168a8d8d51809a8195829463095ea7b360e01b845230908401611d5b565b03925af1801561143d578484611403946113c96113309b7fec589f6ca7a211b3701dc4cc5695a3ed74b06ea9f27df8418ca76f60365f354d9a6113d49661141e575b5082600654168360075416903090611d76565b309060065416611d76565b828a526010602052888a206113ea828254611afa565b905560116113f9828254611afa565b9055600c54611b2e565b600c55611414875192839283611d5b565b0390a13880611324565b6114369060203d602011610c4257610c3281836119f9565b50386113b6565b89513d8c823e3d90fd5b8480f35b6020608492519162461bcd60e51b8352820152603460248201527f446f776e5061796d656e743a2063616e206f6e6c7920726566756e64207570206044820152731d1bc81d1a19481b1bd8dad95908185b5bdd5b9d60621b6064820152fd5b6020608492519162461bcd60e51b8352820152602c60248201527f446f776e5061796d656e743a2063616e206f6e6c7920726566756e6420706f7360448201526b1a5d1a5d9948185b5bdd5b9d60a21b6064820152fd5b50503461021e578160031936011261021e576020906008549051908152f35b50503461021e578160031936011261021e57602090610217611bab565b82843461041e578060031936011261041e578151600380548083529083526020939284830192909183907fc2575a0e9e593c00f959f8c92f12db2869c3395a3b0502d05e2516446f71f85b90845b8181106115e557505050816115a19103826119f9565b83519485948186019282875251809352850193925b8281106115c557505050500390f35b83516001600160a01b0316855286955093810193928101926001016115b6565b82546001600160a01b03168452928801926001928301920161158b565b82843461041e578160031936011261041e575061021760209261162361167d565b9035611c2e565b84913461036b57602036600319011261036b573563ffffffff60e01b811680910361036b5760209250637965db0b60e01b811490811561166c575b5015158152f35b6301ffc9a760e01b14905083611665565b602435906001600160a01b038216820361169357565b600080fd5b600435906001600160a01b038216820361169357565b6000818152602090808252604092838220338352835260ff8483205416156116d65750505050565b835167ffffffffffffffff91903360608201848111838210176119c2578752602a825285820192873685378251156119ae576030845382519160019283101561199a576078602185015360295b83811161193057506118ee57908751946080860190868210908211176118da578852604285528685019560603688378551156118c6576030875385518210156118c65790607860218701536041915b81831161185857505050611816579385936117fc936117ed6048946117c476020b1b1b2b9b9a1b7b73a3937b61d1030b1b1b7bab73a1604d1b996118129b519a8b9788015251809260378801906119d6565b8401917001034b99036b4b9b9b4b733903937b6329607d1b6037840152518093868401906119d6565b010360288101855201836119f9565b5162461bcd60e51b815291829160048301611a31565b0390fd5b60648587519062461bcd60e51b825280600483015260248201527f537472696e67733a20686578206c656e67746820696e73756666696369656e746044820152fd5b909192600f811660108110156118b2576f181899199a1a9b1b9c1cb0b131b232b360811b901a6118888589611b07565b5360041c92801561189e57600019019190611772565b634e487b7160e01b82526011600452602482fd5b634e487b7160e01b83526032600452602483fd5b634e487b7160e01b81526032600452602490fd5b634e487b7160e01b87526041600452602487fd5b60648789519062461bcd60e51b825280600483015260248201527f537472696e67733a20686578206c656e67746820696e73756666696369656e746044820152fd5b90600f81166010811015611986576f181899199a1a9b1b9c1cb0b131b232b360811b901a61195e8387611b07565b5360041c9080156119725760001901611723565b634e487b7160e01b88526011600452602488fd5b634e487b7160e01b89526032600452602489fd5b634e487b7160e01b87526032600452602487fd5b634e487b7160e01b86526032600452602486fd5b634e487b7160e01b86526041600452602486fd5b60005b8381106119e95750506000910152565b81810151838201526020016119d9565b90601f8019910116810190811067ffffffffffffffff821117611a1b57604052565b634e487b7160e01b600052604160045260246000fd5b60409160208252611a5181518092816020860152602086860191016119d6565b601f01601f1916010190565b9060009180835282602052604083209160018060a01b03169182845260205260ff604084205416611a8d57505050565b80835282602052604083208284526020526040832060ff1981541690557ff6391f5c32d9c69d2a47ea670b442974b53935d1edc7fd64eb21e047a839171b339380a4565b81810292918115918404141715611ae457565b634e487b7160e01b600052601160045260246000fd5b91908201809211611ae457565b908151811015611b18570160200190565b634e487b7160e01b600052603260045260246000fd5b91908203918211611ae457565b8115611b45570490565b634e487b7160e01b600052601260045260246000fd5b60085480821115611ba4575b6064611b7f611b768385611b2e565b60095490611ad1565b0490611b8b8184611b2e565b821115611b9757505090565b611ba19250611afa565b90565b5080611b67565b611ba1611bbd600a54600e5490611b2e565b60115490611b2e565b611bda611bd1611bab565b600c5490611b2e565b908115611c275760018060a01b0316600052600b602052604060002054606481029080820460641490151715611ae457606491611c1d611c2392600a5490611b3b565b90611ad1565b0490565b5050600090565b9081158015611c78575b611c275760018060a01b0316600052600b602052604060002054606481029080820460641490151715611ae457606491611c1d611c2392600a5490611b3b565b50600a5415611c38565b15611c8957565b60405162461bcd60e51b8152602060048201526024808201527f446f776e5061796d656e743a2063616c6c6572206973206e6f742074686520616044820152633236b4b760e11b6064820152608490fd5b15611ce157565b60405162461bcd60e51b815260206004820152603460248201527f446f776e5061796d656e743a2063616e206f6e6c792065646974207768696c65604482015273081b9bc8199d5b991cc8185c99481b1bd8dad95960621b6064820152608490fd5b90816020910312611693575180151581036116935790565b6001600160a01b039091168152602081019190915260400190565b6040516323b872dd60e01b60208083019182526001600160a01b039485166024840152948416604483015260648083019690965294815267ffffffffffffffff959460a0820193909287851183861017611a1b57169060e0810184811088821117611a1b576040528484527f5361666545524332303a206c6f772d6c6576656c2063616c6c206661696c656460c0820152600080938192519082855af1903d15611edd573d968711611ec957611e4d94959660405190611e3f88601f19601f84011601836119f9565b81528093873d92013e611eea565b80519081611e5a57505050565b8280611e6a938301019101611d43565b15611e725750565b6084906040519062461bcd60e51b82526004820152602a60248201527f5361666545524332303a204552433230206f7065726174696f6e20646964206e6044820152691bdd081cdd58d8d9595960b21b6064820152fd5b634e487b7160e01b83526041600452602483fd5b9150611e4d939495506060915b91929015611f4c5750815115611efe575090565b3b15611f075790565b60405162461bcd60e51b815260206004820152601d60248201527f416464726573733a2063616c6c20746f206e6f6e2d636f6e74726163740000006044820152606490fd5b825190915015611f5f5750805190602001fd5b60405162461bcd60e51b81529081906118129060048301611a31565b6000198114611ae45760010190565b600354811015611b1857600360005260206000200190600090565b15611fac57565b60405162461bcd60e51b815260206004820152602660248201527f446f776e5061796d656e743a2061646d696e20697320746865207a65726f206160448201526564647265737360d01b6064820152608490fdfeebf2138547daa3f74d598def8309151bd9c66db8213dcb97022683ffd5f2f292a49807205ce4d355092ef5a8a18f56e8913cf4a201fbe287825b095693c21775a2646970667358221220a2b491bae2620cc883cadac862ca0057ecfc1e215077d5b5cd5c6289a4efea6e64736f6c63430008130033",
  "linkReferences": {},
  "deployedLinkReferences": {}
}