{
  "_format": "hh-sol-artifact-1",
  "contractName": "EscrowManager",
  "sourceName": "contracts/EscrowManager.sol",
  "abi": [
    {
      "inputs": [
        {
          "internalType": "address",
          "name": "delegateManagerAddress",
          "type": "address"
        },
        {
          "internalType": "address",
          "name": "feeRecipient",
          "type": "address"
        },
        {
          "internalType": "uint256",
          "name": "baseFee",
          "type": "uint256"
        },
        {
          "internalType": "uint256",
          "name": "percentageFee",
          "type": "uint256"
        }
      ],
      "stateMutability": "nonpayable",
      "type": "constructor"
    },
    {
      "anonymous": false,
      "inputs": [
        {
          "indexed": false,
          "internalType": "uint256",
          "name": "baseFee",
          "type": "uint256"
        }
      ],
      "name": "BaseFeeUpdated",
      "type": "event"
    },
    {
      "anonymous": false,
      "inputs": [
        {
          "indexed": true,
          "internalType": "uint256",
          "name": "id",
          "type": "uint256"
        },
        {
          "indexed": false,
          "internalType": "address",
          "name": "escrowAddress",
          "type": "address"
        },
        {
          "indexed": false,
          "internalType": "address",
          "name": "payee",
          "type": "address"
        },
        {
          "indexed": false,
          "internalType": "address",
          "name": "tokenAddress",
          "type": "address"
        },
        {
          "indexed": false,
          "internalType": "address",
          "name": "feeRecipientAddress",
          "type": "address"
        }
      ],
      "name": "EscrowRegistered",
      "type": "event"
    },
    {
      "anonymous": false,
      "inputs": [
        {
          "indexed": false,
          "internalType": "address",
          "name": "feeRecipient",
          "type": "address"
        }
      ],
      "name": "FeeRecipientUpdated",
      "type": "event"
    },
    {
      "anonymous": false,
      "inputs": [
        {
          "indexed": false,
          "internalType": "uint256",
          "name": "percentageFee",
          "type": "uint256"
        }
      ],
      "name": "PercentageFeeUpdated",
      "type": "event"
    },
    {
      "anonymous": false,
      "inputs": [
        {
          "indexed": true,
          "internalType": "bytes32",
          "name": "role",
          "type": "bytes32"
        },
        {
          "indexed": true,
          "internalType": "bytes32",
          "name": "previousAdminRole",
          "type": "bytes32"
        },
        {
          "indexed": true,
          "internalType": "bytes32",
          "name": "newAdminRole",
          "type": "bytes32"
        }
      ],
      "name": "RoleAdminChanged",
      "type": "event"
    },
    {
      "anonymous": false,
      "inputs": [
        {
          "indexed": true,
          "internalType": "bytes32",
          "name": "role",
          "type": "bytes32"
        },
        {
          "indexed": true,
          "internalType": "address",
          "name": "account",
          "type": "address"
        },
        {
          "indexed": true,
          "internalType": "address",
          "name": "sender",
          "type": "address"
        }
      ],
      "name": "RoleGranted",
      "type": "event"
    },
    {
      "anonymous": false,
      "inputs": [
        {
          "indexed": true,
          "internalType": "bytes32",
          "name": "role",
          "type": "bytes32"
        },
        {
          "indexed": true,
          "internalType": "address",
          "name": "account",
          "type": "address"
        },
        {
          "indexed": true,
          "internalType": "address",
          "name": "sender",
          "type": "address"
        }
      ],
      "name": "RoleRevoked",
      "type": "event"
    },
    {
      "inputs": [],
      "name": "ADMIN_ROLE",
      "outputs": [
        {
          "internalType": "bytes32",
          "name": "",
          "type": "bytes32"
        }
      ],
      "stateMutability": "view",
      "type": "function"
    },
    {
      "inputs": [],
      "name": "DEFAULT_ADMIN_ROLE",
      "outputs": [
        {
          "internalType": "bytes32",
          "name": "",
          "type": "bytes32"
        }
      ],
      "stateMutability": "view",
      "type": "function"
    },
    {
      "inputs": [
        {
          "internalType": "address",
          "name": "admin",
          "type": "address"
        }
      ],
      "name": "addAdmin",
      "outputs": [],
      "stateMutability": "nonpayable",
      "type": "function"
    },
    {
      "inputs": [
        {
          "components": [
            {
              "internalType": "bytes",
              "name": "signedProof",
              "type": "bytes"
            },
            {
              "internalType": "bytes32",
              "name": "delegateCredentialIdHash",
              "type": "bytes32"
            },
            {
              "internalType": "uint256",
              "name": "delegateCredentialExpiryDate",
              "type": "uint256"
            },
            {
              "internalType": "address",
              "name": "delegator",
              "type": "address"
            },
            {
              "components": [
                {
                  "internalType": "bytes",
                  "name": "signedProof",
                  "type": "bytes"
                },
                {
                  "internalType": "bytes32",
                  "name": "delegatorCredentialIdHash",
                  "type": "bytes32"
                },
                {
                  "internalType": "uint256",
                  "name": "delegatorCredentialExpiryDate",
                  "type": "uint256"
                },
                {
                  "internalType": "address",
                  "name": "issuer",
                  "type": "address"
                }
              ],
              "internalType": "struct MembershipProof",
              "name": "membershipProof",
              "type": "tuple"
            }
          ],
          "internalType": "struct RoleProof",
          "name": "roleProof",
          "type": "tuple"
        }
      ],
      "name": "getBaseFee",
      "outputs": [
        {
          "internalType": "uint256",
          "name": "",
          "type": "uint256"
        }
      ],
      "stateMutability": "view",
      "type": "function"
    },
    {
      "inputs": [
        {
          "components": [
            {
              "internalType": "bytes",
              "name": "signedProof",
              "type": "bytes"
            },
            {
              "internalType": "bytes32",
              "name": "delegateCredentialIdHash",
              "type": "bytes32"
            },
            {
              "internalType": "uint256",
              "name": "delegateCredentialExpiryDate",
              "type": "uint256"
            },
            {
              "internalType": "address",
              "name": "delegator",
              "type": "address"
            },
            {
              "components": [
                {
                  "internalType": "bytes",
                  "name": "signedProof",
                  "type": "bytes"
                },
                {
                  "internalType": "bytes32",
                  "name": "delegatorCredentialIdHash",
                  "type": "bytes32"
                },
                {
                  "internalType": "uint256",
                  "name": "delegatorCredentialExpiryDate",
                  "type": "uint256"
                },
                {
                  "internalType": "address",
                  "name": "issuer",
                  "type": "address"
                }
              ],
              "internalType": "struct MembershipProof",
              "name": "membershipProof",
              "type": "tuple"
            }
          ],
          "internalType": "struct RoleProof",
          "name": "roleProof",
          "type": "tuple"
        },
        {
          "internalType": "uint256",
          "name": "id",
          "type": "uint256"
        }
      ],
      "name": "getEscrow",
      "outputs": [
        {
          "internalType": "contract Escrow",
          "name": "",
          "type": "address"
        }
      ],
      "stateMutability": "view",
      "type": "function"
    },
    {
      "inputs": [
        {
          "components": [
            {
              "internalType": "bytes",
              "name": "signedProof",
              "type": "bytes"
            },
            {
              "internalType": "bytes32",
              "name": "delegateCredentialIdHash",
              "type": "bytes32"
            },
            {
              "internalType": "uint256",
              "name": "delegateCredentialExpiryDate",
              "type": "uint256"
            },
            {
              "internalType": "address",
              "name": "delegator",
              "type": "address"
            },
            {
              "components": [
                {
                  "internalType": "bytes",
                  "name": "signedProof",
                  "type": "bytes"
                },
                {
                  "internalType": "bytes32",
                  "name": "delegatorCredentialIdHash",
                  "type": "bytes32"
                },
                {
                  "internalType": "uint256",
                  "name": "delegatorCredentialExpiryDate",
                  "type": "uint256"
                },
                {
                  "internalType": "address",
                  "name": "issuer",
                  "type": "address"
                }
              ],
              "internalType": "struct MembershipProof",
              "name": "membershipProof",
              "type": "tuple"
            }
          ],
          "internalType": "struct RoleProof",
          "name": "roleProof",
          "type": "tuple"
        }
      ],
      "name": "getEscrowCounter",
      "outputs": [
        {
          "internalType": "uint256",
          "name": "",
          "type": "uint256"
        }
      ],
      "stateMutability": "view",
      "type": "function"
    },
    {
      "inputs": [
        {
          "components": [
            {
              "internalType": "bytes",
              "name": "signedProof",
              "type": "bytes"
            },
            {
              "internalType": "bytes32",
              "name": "delegateCredentialIdHash",
              "type": "bytes32"
            },
            {
              "internalType": "uint256",
              "name": "delegateCredentialExpiryDate",
              "type": "uint256"
            },
            {
              "internalType": "address",
              "name": "delegator",
              "type": "address"
            },
            {
              "components": [
                {
                  "internalType": "bytes",
                  "name": "signedProof",
                  "type": "bytes"
                },
                {
                  "internalType": "bytes32",
                  "name": "delegatorCredentialIdHash",
                  "type": "bytes32"
                },
                {
                  "internalType": "uint256",
                  "name": "delegatorCredentialExpiryDate",
                  "type": "uint256"
                },
                {
                  "internalType": "address",
                  "name": "issuer",
                  "type": "address"
                }
              ],
              "internalType": "struct MembershipProof",
              "name": "membershipProof",
              "type": "tuple"
            }
          ],
          "internalType": "struct RoleProof",
          "name": "roleProof",
          "type": "tuple"
        }
      ],
      "name": "getFeeRecipient",
      "outputs": [
        {
          "internalType": "address",
          "name": "",
          "type": "address"
        }
      ],
      "stateMutability": "view",
      "type": "function"
    },
    {
      "inputs": [
        {
          "components": [
            {
              "internalType": "bytes",
              "name": "signedProof",
              "type": "bytes"
            },
            {
              "internalType": "bytes32",
              "name": "delegateCredentialIdHash",
              "type": "bytes32"
            },
            {
              "internalType": "uint256",
              "name": "delegateCredentialExpiryDate",
              "type": "uint256"
            },
            {
              "internalType": "address",
              "name": "delegator",
              "type": "address"
            },
            {
              "components": [
                {
                  "internalType": "bytes",
                  "name": "signedProof",
                  "type": "bytes"
                },
                {
                  "internalType": "bytes32",
                  "name": "delegatorCredentialIdHash",
                  "type": "bytes32"
                },
                {
                  "internalType": "uint256",
                  "name": "delegatorCredentialExpiryDate",
                  "type": "uint256"
                },
                {
                  "internalType": "address",
                  "name": "issuer",
                  "type": "address"
                }
              ],
              "internalType": "struct MembershipProof",
              "name": "membershipProof",
              "type": "tuple"
            }
          ],
          "internalType": "struct RoleProof",
          "name": "roleProof",
          "type": "tuple"
        }
      ],
      "name": "getPercentageFee",
      "outputs": [
        {
          "internalType": "uint256",
          "name": "",
          "type": "uint256"
        }
      ],
      "stateMutability": "view",
      "type": "function"
    },
    {
      "inputs": [
        {
          "internalType": "bytes32",
          "name": "role",
          "type": "bytes32"
        }
      ],
      "name": "getRoleAdmin",
      "outputs": [
        {
          "internalType": "bytes32",
          "name": "",
          "type": "bytes32"
        }
      ],
      "stateMutability": "view",
      "type": "function"
    },
    {
      "inputs": [
        {
          "internalType": "bytes32",
          "name": "role",
          "type": "bytes32"
        },
        {
          "internalType": "address",
          "name": "account",
          "type": "address"
        }
      ],
      "name": "grantRole",
      "outputs": [],
      "stateMutability": "nonpayable",
      "type": "function"
    },
    {
      "inputs": [
        {
          "internalType": "bytes32",
          "name": "role",
          "type": "bytes32"
        },
        {
          "internalType": "address",
          "name": "account",
          "type": "address"
        }
      ],
      "name": "hasRole",
      "outputs": [
        {
          "internalType": "bool",
          "name": "",
          "type": "bool"
        }
      ],
      "stateMutability": "view",
      "type": "function"
    },
    {
      "inputs": [
        {
          "internalType": "address",
          "name": "admin",
          "type": "address"
        },
        {
          "internalType": "address",
          "name": "payee",
          "type": "address"
        },
        {
          "internalType": "uint256",
          "name": "duration",
          "type": "uint256"
        },
        {
          "internalType": "address",
          "name": "tokenAddress",
          "type": "address"
        }
      ],
      "name": "registerEscrow",
      "outputs": [
        {
          "internalType": "contract Escrow",
          "name": "",
          "type": "address"
        }
      ],
      "stateMutability": "nonpayable",
      "type": "function"
    },
    {
      "inputs": [
        {
          "internalType": "address",
          "name": "admin",
          "type": "address"
        }
      ],
      "name": "removeAdmin",
      "outputs": [],
      "stateMutability": "nonpayable",
      "type": "function"
    },
    {
      "inputs": [
        {
          "internalType": "bytes32",
          "name": "role",
          "type": "bytes32"
        },
        {
          "internalType": "address",
          "name": "account",
          "type": "address"
        }
      ],
      "name": "renounceRole",
      "outputs": [],
      "stateMutability": "nonpayable",
      "type": "function"
    },
    {
      "inputs": [
        {
          "internalType": "bytes32",
          "name": "role",
          "type": "bytes32"
        },
        {
          "internalType": "address",
          "name": "account",
          "type": "address"
        }
      ],
      "name": "revokeRole",
      "outputs": [],
      "stateMutability": "nonpayable",
      "type": "function"
    },
    {
      "inputs": [
        {
          "internalType": "bytes4",
          "name": "interfaceId",
          "type": "bytes4"
        }
      ],
      "name": "supportsInterface",
      "outputs": [
        {
          "internalType": "bool",
          "name": "",
          "type": "bool"
        }
      ],
      "stateMutability": "view",
      "type": "function"
    },
    {
      "inputs": [
        {
          "internalType": "uint256",
          "name": "baseFee",
          "type": "uint256"
        }
      ],
      "name": "updateBaseFee",
      "outputs": [],
      "stateMutability": "nonpayable",
      "type": "function"
    },
    {
      "inputs": [
        {
          "internalType": "address",
          "name": "feeRecipient",
          "type": "address"
        }
      ],
      "name": "updateFeeRecipient",
      "outputs": [],
      "stateMutability": "nonpayable",
      "type": "function"
    },
    {
      "inputs": [
        {
          "internalType": "uint256",
          "name": "percentageFee",
          "type": "uint256"
        }
      ],
      "name": "updatePercentageFee",
      "outputs": [],
      "stateMutability": "nonpayable",
      "type": "function"
    }
  ],
  "bytecode": "0x608034620002bc57601f6200421238819003918201601f191683019291906001600160401b03841183851017620002c1578160809284926040968752833981010312620002bc576200005181620002d7565b9060209262000062848301620002d7565b81830151606090930151936001600160a01b039081169182156200025257600180546001600160a01b0319908116909417905516918215620001f657606485116200018d577fa49807205ce4d355092ef5a8a18f56e8913cf4a201fbe287825b095693c217759060008097838252818152828220338352815260ff83832054161562000144575b83825252817fbd79b86ffe0ab8e8776151514217cd7cacd52c909f66475c3af44e129f0b00ff6001838a2001928284549455519880a4338160035416176003556004541617600455600555600655613f259081620002ed8239f35b8382528181528282203383528152828220600160ff198254161790553333857f2f8788117e7eff1d82e926ec794901d17c78024a50270940304540a733656f0d8580a4620000e9565b5162461bcd60e51b815260048101869052603860248201527f457363726f774d616e616765723a2070657263656e746167652066656520636160448201527f6e6e6f742062652067726561746572207468616e2031303000000000000000006064820152608490fd5b5162461bcd60e51b815260048101869052603060248201527f457363726f774d616e616765723a2066656520726563697069656e742069732060448201526f746865207a65726f206164647265737360801b6064820152608490fd5b835162461bcd60e51b815260048101889052603e60248201527f4b4243416363657373436f6e74726f6c3a2064656c6567617465206d616e616760448201527f6572206164647265737320697320746865207a65726f206164647265737300006064820152608490fd5b600080fd5b634e487b7160e01b600052604160045260246000fd5b51906001600160a01b0382168203620002bc5756fe608060408181526004803610156200001657600080fd5b600092833560e01c90816301ffc9a714620010d95750806311cfe6bc14620010875780631785f53c1462000fae578063248a9ca31462000f835780632db9f3b11462000f385780632f2ff15d1462000e8957806336568abe1462000df05780634afad5071462000da55780635a1f015f1462000d495780635b5b6f561462000b03578063704802751462000a2657806375b238fc14620009fa578063783e4e4c14620009a35780638e69018614620007b357806391d14854146200076a578063a217fddf146200074d578063d547741f1462000708578063e1d111da14620003a25763f160d369146200010857600080fd5b346200039e57602090816003193601126200039a5762000127620011de565b9260008051602062003ed0833981519152855284835280852033865283526200015660ff8287205416620017a9565b6001600160a01b039384169182156200033b5780548581168414620002c6576001600160a01b0319168317815560019485805b620001bd575b5050507f7a7b5a0a132f9e0581eb8527f66eae9ee89c2a3e79d4ac7e41a1f1f4d48a7fc2935051908152a180f35b6002548111620002c0578088526007808752838784878c205416875192838092631295e44360e11b82525afa908115620002b6578a916200027f575b501562000214575b506200020d9062001805565b8662000189565b818952865287828582205416803b156200027b578190602487518094819363f160d36960e01b83528b8a8401525af180156200027157906200020d92916200025f575b509062000201565b6200026a9062001132565b3862000257565b85513d8b823e3d90fd5b5080fd5b90508781813d8311620002ae575b6200029981836200115c565b81010312620002aa575138620001f9565b8980fd5b503d6200028d565b86513d8c823e3d90fd5b6200018f565b508360a492519162461bcd60e51b8352820152604460248201527f457363726f774d616e616765723a206e657720636f6d6d697373696f6e20616460448201527f6472657373206973207468652073616d65206f66207468652063757272656e74606482015263206f6e6560e01b6084820152fd5b83608492519162461bcd60e51b8352820152603560248201527f457363726f774d616e616765723a20636f6d6d697373696f6e206164647265736044820152747320697320746865207a65726f206164647265737360581b6064820152fd5b8380fd5b8280fd5b509190346200027b5760803660031901126200027b57620003c2620011de565b620003cc620011f5565b93604435916001600160a01b036064358181169391929084900362000704578216968715620006b05782169687156200065c57841562000619578315620005bd576002549460018601809611620005aa578560025583835416906005546006549089519361242e93848601948686106001600160401b0387111762000597579160e09593918f88969462001aa2883930865260208601528d8501528a6060850152608084015260a083015260c082015203019088f09687156200058c57858152600760205286812080546001600160a01b0319169885169889179055873b1562000589578651637048027560e01b92838252848201528181602481838d5af180156200057f576200056d575b508360035416883b156200027b578751928352838301528082602481838c5af190811562000562575092602098927f513e71eb07f5ff0507ca89cdc7596aa28266afa25415c6d14fb8964f529578e8959260809562000550575b5054169086519288845289840152868301526060820152a251908152f35b6200055b9062001132565b3862000532565b8751903d90823e3d90fd5b620005789062001132565b38620004d8565b88513d84823e3d90fd5b80fd5b8651903d90823e3d90fd5b634e487b7160e01b8e526041895260248efd5b634e487b7160e01b885260118352602488fd5b855162461bcd60e51b8152602081840152603060248201527f457363726f774d616e616765723a20746f6b656e20616464726573732069732060448201526f746865207a65726f206164647265737360801b6064820152608490fd5b855162461bcd60e51b8152602081840152601f60248201527f457363726f774d616e616765723a206475726174696f6e206973207a65726f006044820152606490fd5b855162461bcd60e51b8152602081840152602860248201527f457363726f774d616e616765723a20706179656520697320746865207a65726f604482015267206164647265737360c01b6064820152608490fd5b855162461bcd60e51b8152602081840152602860248201527f457363726f774d616e616765723a2061646d696e20697320746865207a65726f604482015267206164647265737360c01b6064820152608490fd5b8680fd5b5090346200039e57806003193601126200039e576200074a913562000744600162000732620011f5565b93838752866020528620015462001302565b62001699565b80f35b5050346200027b57816003193601126200027b5751908152602090f35b50346200039e57816003193601126200039e578160209360ff926200078e620011f5565b903582528186528282206001600160a01b039091168252855220549151911615158152f35b50346200039e57602091826003193601126200039a57813560008051602062003ed083398151915285528484528185203386528452620007f960ff8387205416620017a9565b60055481146200093b5780600555845b6002548110156200090e5780865285600780875260018060a01b03908688838886205416885192838092631295e44360e11b82525afa90811562000904578491620008d1575b50156200086b575b505050620008659062001805565b62000809565b83835287528482205416803b156200027b578190602486518094819363473480c360e11b8352888b8401525af18015620008c75790620008659291620008b5575b87919262000857565b620008c09062001132565b38620008ac565b84513d89823e3d90fd5b90508881813d8311620008fc575b620008eb81836200115c565b810103126200039a5751386200084f565b503d620008df565b87513d86823e3d90fd5b857f803bee7e92bbc6ae7a1551f9f4ed3e31a8ea8df32e93332f41b0028f1091f9c386848651908152a180f35b5091608492519162461bcd60e51b8352820152603a60248201527f457363726f774d616e616765723a206e6577206261736520666565206973207460448201527f68652073616d65206f66207468652063757272656e74206f6e650000000000006064820152fd5b5091346200058957602036600319011262000589578235906001600160401b038211620005895750620009ea620009e4602094620009f09336910162001221565b620018c4565b62001736565b6006549051908152f35b5050346200027b57816003193601126200027b576020905160008051602062003ed08339815191528152f35b5050346200027b57602090816003193601126200039e5762000a47620011de565b9060008051602062003ed083398151915292838552848152818520338652815262000a7860ff8387205416620017a9565b83855284815262000a8f6001838720015462001302565b8385528481528185206001600160a01b039093168086529281528185205460ff161562000aba578480f35b83855284815281852083865290528320805460ff1916600117905533917f2f8788117e7eff1d82e926ec794901d17c78024a50270940304540a733656f0d8480a4388080808480f35b50346200039e57602091826003193601126200039a57813560008051602062003ed08339815191528552848452818520338652845262000b4960ff8387205416620017a9565b600654811462000ce3576064811162000c805780600655845b60025481101562000c535780865285600780875260018060a01b03908688838886205416885192838092631295e44360e11b82525afa9081156200090457849162000c20575b501562000bc4575b50505062000bbe9062001805565b62000b62565b83835287528482205416803b156200027b5781906024865180948193632dadb7ab60e11b8352888b8401525af18015620008c7579062000bbe929162000c0e575b87919262000bb0565b62000c199062001132565b3862000c05565b90508881813d831162000c4b575b62000c3a81836200115c565b810103126200039a57513862000ba8565b503d62000c2e565b857f23f687f210688a3ee1ab47f124ec8d14e79c872beee466e8294120f2377e070886848651908152a180f35b5091608492519162461bcd60e51b8352820152603860248201527f457363726f774d616e616765723a2070657263656e746167652066656520636160448201527706e6e6f742062652067726561746572207468616e203130360441b6064820152fd5b5060849281519262461bcd60e51b845283015260248201527f457363726f774d616e616765723a206e65772070657263656e7461676520666560448201527f65206973207468652073616d65206f66207468652063757272656e74206f6e656064820152fd5b50346200039e57816003193601126200039e5780356001600160401b0381116200039a57620009ea620009e46020959362000d879336910162001221565b6024358152600783528190205490516001600160a01b039091168152f35b5091346200058957602036600319011262000589578235906001600160401b038211620005895750620009ea620009e460209462000de69336910162001221565b6005549051908152f35b508290346200027b57826003193601126200027b5762000e0f620011f5565b90336001600160a01b0383160362000e2e57906200074a913562001699565b608490602085519162461bcd60e51b8352820152602f60248201527f416363657373436f6e74726f6c3a2063616e206f6e6c792072656e6f756e636560448201526e103937b632b9903337b91039b2b63360891b6064820152fd5b50346200039e57816003193601126200039e57359062000ea8620011f5565b908284528360205262000ec16001828620015462001302565b82845260208481528185206001600160a01b039093168086529290528084205460ff161562000eee578380f35b828452836020528084208285526020528320600160ff1982541617905533917f2f8788117e7eff1d82e926ec794901d17c78024a50270940304540a733656f0d8480a43880808380f35b5091346200058957602036600319011262000589578235906001600160401b038211620005895750620009ea620009e460209462000f799336910162001221565b6002549051908152f35b50346200039e5760203660031901126200039e57816020936001923581528085522001549051908152f35b5050346200027b57602090816003193601126200039e5762000fcf620011de565b9060008051602062003ed08339815191529283855284815281852033865281526200100060ff8387205416620017a9565b838552848152620010176001838720015462001302565b8385528481528185206001600160a01b039093168086529281528185205460ff1662001041578480f35b83855284815281852083865290528320805460ff1916905533917ff6391f5c32d9c69d2a47ea670b442974b53935d1edc7fd64eb21e047a839171b8480a4388080808480f35b50346200039e5760203660031901126200039e578035926001600160401b038411620005895750620010c7620009ea620009e46020953690850162001221565b5490516001600160a01b039091168152f35b925050346200039e5760203660031901126200039e573563ffffffff60e01b81168091036200039e5760209250637965db0b60e01b811490811562001120575b5015158152f35b6301ffc9a760e01b1490503862001119565b6001600160401b0381116200114657604052565b634e487b7160e01b600052604160045260246000fd5b90601f801991011681019081106001600160401b038211176200114657604052565b81601f82011215620011d9578035906001600160401b038211620011465760405192620011b6601f8401601f1916602001856200115c565b82845260208383010111620011d957816000926020809301838601378301015290565b600080fd5b600435906001600160a01b0382168203620011d957565b602435906001600160a01b0382168203620011d957565b35906001600160a01b0382168203620011d957565b919060a083820312620011d957604080516001600160401b0360a08201818111838210176200114657835281958035828111620011d95785620012669183016200117e565b835260208101356020840152838101358484015262001288606082016200120c565b6060840152608081013590828211620011d9570193608085820312620011d9578351946080860186811084821117620011465785528035928311620011d957608094620012de606093620012f99584016200117e565b8752602082013560208801528082013590870152016200120c565b60608401520152565b600090808252602090828252604092838120338252835260ff8482205416156200132c5750505050565b8351916001600160401b039033606085018381118682101762001639578752602a8552858501918736843785511562001625576030835385519160019283101562001611576078602188015360295b838111620015a257506200156057908751936080850190858210908211176200154c578852604284528684019460603687378451156200153857603086538451821015620015385790607860218601536041915b818311620014c55750505062001483576200147f938693620014629362001452604894620014289a519a8b9576020b1b1b2b9b9a1b7b73a3937b61d1030b1b1b7bab73a1604d1b8c88015251809260378801906200164d565b8401917001034b99036b4b9b9b4b733903937b6329607d1b6037840152518093868401906200164d565b010360288101875201856200115c565b5192839262461bcd60e51b84526004840152602483019062001672565b0390fd5b60648587519062461bcd60e51b825280600483015260248201527f537472696e67733a20686578206c656e67746820696e73756666696369656e746044820152fd5b909192600f8116601081101562001524576f181899199a1a9b1b9c1cb0b131b232b360811b901a620014f885886200170e565b5360041c9280156200151057600019019190620013cf565b634e487b7160e01b82526011600452602482fd5b634e487b7160e01b83526032600452602483fd5b634e487b7160e01b81526032600452602490fd5b634e487b7160e01b86526041600452602486fd5b60648789519062461bcd60e51b825280600483015260248201527f537472696e67733a20686578206c656e67746820696e73756666696369656e746044820152fd5b90600f81166010811015620015fd576f181899199a1a9b1b9c1cb0b131b232b360811b901a620015d3838a6200170e565b5360041c908015620015e957600019016200137b565b634e487b7160e01b87526011600452602487fd5b634e487b7160e01b88526032600452602488fd5b634e487b7160e01b86526032600452602486fd5b634e487b7160e01b85526032600452602485fd5b634e487b7160e01b85526041600452602485fd5b60005b838110620016615750506000910152565b818101518382015260200162001650565b906020916200168d815180928185528580860191016200164d565b601f01601f1916010190565b9060009180835282602052604083209160018060a01b03169182845260205260ff604084205416620016ca57505050565b80835282602052604083208284526020526040832060ff1981541690557ff6391f5c32d9c69d2a47ea670b442974b53935d1edc7fd64eb21e047a839171b339380a4565b90815181101562001720570160200190565b634e487b7160e01b600052603260045260246000fd5b156200173e57565b60405162461bcd60e51b815260206004820152603d60248201527f4b4243416363657373436f6e74726f6c3a2043616c6c657220646f65736e277460448201527f206861766520726f6c65202756696577657227206f72206869676865720000006064820152608490fd5b15620017b157565b60405162461bcd60e51b815260206004820152602660248201527f457363726f774d616e616765723a2063616c6c6572206973206e6f74207468656044820152651030b236b4b760d11b6064820152608490fd5b6000198114620018155760010190565b634e487b7160e01b600052601160045260246000fd5b90816020910312620011d957518015158103620011d95790565b60606200185c825160a0855260a085019062001672565b916020810151602085015260408101516040850152608060018060a01b039182848201511684870152015193608081850391015281620018a6855160808652608086019062001672565b94602081015160208601526040810151604086015201511691015290565b6001546040805163cb77972f60e01b80825260048201839052939092652b34b2bbb2b960d11b91906001600160a01b031662001904604486018362001845565b95858703968686600319998a810160248401526006845260209788809501520181855afa95861562001a725760009662001a7d575b508515620019f6575b851562001954575b5050505050905090565b6200198395508480976529b4b3b732b960d11b86809851998a9788968752856004880152604487019062001845565b858103938401602487015260068152015201915afa928315620019ec5750600092620019b8575b50508038808080806200194a565b620019dc9250803d10620019e4575b620019d381836200115c565b8101906200182b565b3880620019aa565b503d620019c7565b513d6000823e3d90fd5b9450835185815284600482015283818662001a15604483018762001845565b6522b234ba37b960d11b84848303928d840160248701526006815201520181855afa90811562001a725760009162001a50575b509462001942565b62001a6b9150843d8611620019e457620019d381836200115c565b3862001a48565b85513d6000823e3d90fd5b62001a99919650843d8611620019e457620019d381836200115c565b94386200193956fe608034620003da57601f6200242e38819003918201601f191683019291906001600160401b03841183851017620003df578160e09284926040968752833981010312620003da576200005181620003f5565b60209162000061838201620003f5565b848201516200007360608401620003f5565b906200008260808501620003f5565b9060c060a08601519501519560018060a01b038091169485156200038c5781169384156200033e578215620002fa578116928315620002a457169384156200024e5760648711620001f0577fa49807205ce4d355092ef5a8a18f56e8913cf4a201fbe287825b095693c217759060009889918383528282528b8320818452825260ff8c8420541615620001a6575b508282525260018989200198818a549a555198817fbd79b86ffe0ab8e8776151514217cd7cacd52c909f66475c3af44e129f0b00ff8a80a460018060a01b0319928084600154161760015583600254161760025542600455600555816006541617600655600754161760075560085560095580600a5580600c5580600d5580600e5580600f5560115561202390816200040b8239f35b8383528282528b832081845282528b8320805460ff191660011790553390847f2f8788117e7eff1d82e926ec794901d17c78024a50270940304540a733656f0d8580a43862000110565b885162461bcd60e51b815260048101899052603160248201527f457363726f773a2070657263656e74616765206665652063616e6e6f7420626560448201527002067726561746572207468616e2031303607c1b6064820152608490fd5b885162461bcd60e51b815260048101899052602960248201527f457363726f773a2066656520726563697069656e7420697320746865207a65726044820152686f206164647265737360b81b6064820152608490fd5b895162461bcd60e51b8152600481018a9052602960248201527f457363726f773a20746f6b656e206164647265737320697320746865207a65726044820152686f206164647265737360b81b6064820152608490fd5b895162461bcd60e51b8152600481018a9052601860248201527f457363726f773a206475726174696f6e206973207a65726f00000000000000006044820152606490fd5b895162461bcd60e51b8152600481018a9052602160248201527f457363726f773a20706179656520697320746865207a65726f206164647265736044820152607360f81b6064820152608490fd5b895162461bcd60e51b8152600481018a9052602160248201527f457363726f773a2061646d696e20697320746865207a65726f206164647265736044820152607360f81b6064820152608490fd5b600080fd5b634e487b7160e01b600052604160045260246000fd5b51906001600160a01b0382168203620003da5756fe608060408181526004918236101561001657600080fd5b600092833560e01c91826301ffc9a7146115ed575081630eb21530146115c55781631055d7081461150057816310fe9ae81461116557816312065fe0146114e357816315e812ad146114c457816315f1bbfe146112655781631785f53c1461118e57816321df0da714611165578163248a9ca31461113b578163252bc8861461111c5781632e1a7d4d14610e785781632f13b60c14610e4b5781632f2ff15d14610da257816336568abe14610d105781634ccb20c014610ce75781634d68282f14610ae85781635b5b6f5614610a2c5781635f8d96de14610a095781636a5b5e7c146109ea5781636e553f6514610833578163704802751461075857816375b238fc1461072f5781638401b96814610710578163893d20e8146106e75781638c8f95fb146105cd5781638e6901861461057957816391d1485414610533578163961006711461051457816396e9be63146104f55781639a5569a7146104d6578163a217fddf146104bb578163ad2e8c9b1461049c578163c79256231461047e578163cd44673514610455578163d547741f14610417578163d5a06d4c146103f4578163db7ac399146103d5578163e150ff391461039d578163e9081ec714610365578163f160d36914610222575063f6777175146101f357600080fd5b3461021e57602036600319011261021e5760209061021761021261165b565b611b89565b9051908152f35b5080fd5b9050346103615760203660031901126103615761023d61165b565b90600080516020611fce83398151915284528360205282842033855260205261026b60ff8486205416611c45565b610277600c5415611c91565b6001600160a01b0391821692831561030c5760075492831684146102a85750506001600160a01b0319161760075580f35b906020608492519162461bcd60e51b8352820152603860248201527f457363726f773a206e65772066656520726563697069656e74206973207468656044820152772073616d65206f66207468652063757272656e74206f6e6560401b6064820152fd5b906020608492519162461bcd60e51b8352820152602960248201527f457363726f773a2066656520726563697069656e7420697320746865207a65726044820152686f206164647265737360b81b6064820152fd5b8280fd5b50503461021e57602036600319011261021e5760209181906001600160a01b0361038d61165b565b168152600b845220549051908152f35b50503461021e57602036600319011261021e5760209181906001600160a01b036103c561165b565b1681526010845220549051908152f35b50503461021e578160031936011261021e57602090600a549051908152f35b828434610414576020366003190112610414575061021760209235611b1e565b80fd5b91905034610361578060031936011261036157610452913561044d600161043c611640565b938387528660205286200154611671565b611a20565b80f35b50503461021e578160031936011261021e5760025490516001600160a01b039091168152602090f35b90503461036157826003193601126103615760209250549051908152f35b50503461021e578160031936011261021e576020906005549051908152f35b50503461021e578160031936011261021e5751908152602090f35b50503461021e578160031936011261021e57602090600e549051908152f35b50503461021e578160031936011261021e57602090600f549051908152f35b50503461021e578160031936011261021e576020906009549051908152f35b9050346103615781600319360112610361578160209360ff92610554611640565b903582528186528282206001600160a01b039091168252855220549151911615158152f35b919050346103615760203660031901126103615760ff6105ba91600080516020611fce83398151915285528460205280852033865260205284205416611c45565b6105c6600c5415611c91565b3560085580f35b8391503461021e57602036600319011261021e57803590600080516020611fce83398151915283528260205283832033845260205261061160ff8585205416611c45565b811561069657600c54906106258383611abd565b61062d611b6e565b1061064357509061063d91611abd565b600c5580f35b608490602086519162461bcd60e51b8352820152602760248201527f457363726f773a2063616e206f6e6c79206c6f636b20757020746f207468652060448201526662616c616e636560c81b6064820152fd5b608490602085519162461bcd60e51b8352820152602560248201527f457363726f773a2063616e206f6e6c79206c6f636b20706f73697469766520616044820152641b5bdd5b9d60da1b6064820152fd5b50503461021e578160031936011261021e5760015490516001600160a01b039091168152602090f35b50503461021e578160031936011261021e57602090600d549051908152f35b50503461021e578160031936011261021e5760209051600080516020611fce8339815191528152f35b50503461021e576020806003193601126103615761077461165b565b91600080516020611fce8339815191529283855284835281852033865283526107a260ff8387205416611c45565b6001600160a01b0316916107b7831515611f57565b8385528481526107cc60018387200154611671565b838552848152818520838652815260ff8286205416156107ea578480f35b83855284815281852083865290528320805460ff1916600117905533917f2f8788117e7eff1d82e926ec794901d17c78024a50270940304540a733656f0d8480a4388080808480f35b83833461021e578060031936011261021e57823590610850611640565b90600080516020611fce83398151915284528360205280842033855260205261087e60ff8286205416611c45565b82156109975760018060a01b0361089c848260065416853091611d28565b821694858552600b602052818520541561090f575b506109099084957f85e097789c3ac56c0d1376d977138b099d5ccbdf055680a82bb03e6fb52bcbe89552600b6020528086206108ee858254611abd565b90556108fc84600a54611abd565b600a555192839283611d0d565b0390a180f35b94600354600160401b811015610984577f85e097789c3ac56c0d1376d977138b099d5ccbdf055680a82bb03e6fb52bcbe89596509061097b8461095c846001610909979601600355611f3c565b90919082549060031b9160018060a01b03809116831b921b1916179055565b959450906108b1565b634e487b7160e01b865260418752602486fd5b5162461bcd60e51b8152602081860152602860248201527f457363726f773a2063616e206f6e6c79206465706f73697420706f73697469766044820152671948185b5bdd5b9d60c21b6064820152608490fd5b50503461021e578160031936011261021e576020906011549051908152f35b828434610414578060031936011261041457506102176020925460055490611abd565b90503461036157602036600319011261036157803591600080516020611fce833981519152845283602052808420338552602052610a6f60ff8286205416611c45565b610a7b600c5415611c91565b60648311610a8b57505060095580f35b906020608492519162461bcd60e51b8352820152603160248201527f457363726f773a2070657263656e74616765206665652063616e6e6f7420626560448201527002067726561746572207468616e2031303607c1b6064820152fd5b9050346103615760209081600319360112610ce3578035600080516020611fce83398151915285528483528385203386528352610b2a60ff8587205416611c45565b8015610c9057600c548111610c3557610b4281611b1e565b610b4c8183611af1565b93610b7c818460018060a01b03968760065416908b8b5180968195829463095ea7b360e01b845230908401611d0d565b03925af18015610c2b57600080516020611fae833981519152979593610beb936109099693610bbe93610bfd575b505084600654168560075416903090611d28565b610bd48684600654168560025416903090611d28565b610be081600c54611af1565b600c55600e54611abd565b600e5560025416915192839283611d0d565b81610c1c92903d10610c24575b610c1481836119bc565b810190611cf5565b503880610baa565b503d610c0a565b87513d8a823e3d90fd5b50915162461bcd60e51b815291820152603060248201527f457363726f773a2063616e206f6e6c792072656c6561736520757020746f207460448201526f1a19481b1bd8dad95908185b5bdd5b9d60821b6064820152608490fd5b50915162461bcd60e51b815291820152602860248201527f457363726f773a2063616e206f6e6c792072656c6561736520706f73697469766044820152671948185b5bdd5b9d60c21b6064820152608490fd5b8380fd5b50503461021e578160031936011261021e5760075490516001600160a01b039091168152602090f35b8391503461021e578260031936011261021e57610d2b611640565b90336001600160a01b03831603610d4757906104529135611a20565b608490602085519162461bcd60e51b8352820152602f60248201527f416363657373436f6e74726f6c3a2063616e206f6e6c792072656e6f756e636560448201526e103937b632b9903337b91039b2b63360891b6064820152fd5b9050346103615781600319360112610361573590610dbe611640565b9082845283602052610dd560018286200154611671565b82845260208481528185206001600160a01b039093168086529290528084205460ff1615610e01578380f35b828452836020528084208285526020528320600160ff1982541617905533917f2f8788117e7eff1d82e926ec794901d17c78024a50270940304540a733656f0d8480a43880808380f35b82843461041457806003193601126104145750610e6e6020925460055490611abd565b4210159051908152f35b919050346103615760209182600319360112610ce35780359283156110ca57610ea033611b89565b841161106a57600654835163095ea7b360e01b81526001600160a01b039291829082908516818a81610ed58c308c8401611d0d565b03925af180156110605790600b9291611043575b50610efa8633308660065416611d28565b338752818152848720610f0e878254611af1565b9055338752528285205415610f4d575b84600080516020611fae8339815191526109098686610f3f82600a54611af1565b600a55519182913383611d0d565b92909391825b60038054808310156110245786610f6984611f3c565b905490841b1c163314610f86575050610f8190611f2d565b610f53565b9091600096939495961991828101908111611011579061095c85610fac610fb994611f3c565b905490871b1c1691611f3c565b81548015610ffe57600080516020611fae8339815191529697509061090995949392910191610fe783611f3c565b9091825491841b1b19169055555b91819350610f1e565b634e487b7160e01b875260318852602487fd5b634e487b7160e01b885260118952602488fd5b505050610909929450600080516020611fae8339815191529350610ff5565b61105990823d8411610c2457610c1481836119bc565b5038610ee9565b85513d89823e3d90fd5b608492519162461bcd60e51b8352820152603760248201527f457363726f773a2063616e206f6e6c7920776974686472617720757020746f206044820152761d1a19481dda5d1a191c985dd8589b1948185b5bdd5b9d604a1b6064820152fd5b608492519162461bcd60e51b8352820152602960248201527f457363726f773a2063616e206f6e6c7920776974686472617720706f736974696044820152681d9948185b5bdd5b9d60ba1b6064820152fd5b50503461021e578160031936011261021e57602090600c549051908152f35b90503461036157602036600319011261036157816020936001923581528085522001549051908152f35b50503461021e578160031936011261021e5760065490516001600160a01b039091168152602090f35b50503461021e57602080600319360112610361576111aa61165b565b91600080516020611fce8339815191529283855284835281852033865283526111d860ff8387205416611c45565b6001600160a01b0316916111ed831515611f57565b83855284815261120260018387200154611671565b838552848152818520838652815260ff828620541661121f578480f35b83855284815281852083865290528320805460ff1916905533917ff6391f5c32d9c69d2a47ea670b442974b53935d1edc7fd64eb21e047a839171b8480a4388080808480f35b90503461036157602036600319011261036157600080516020611fce8339815191528352826020528183203384526020526112a560ff8385205416611c45565b80351561147257600c5481351161141857825b6003908154811015611414576112cd81611f3c565b90546001600160a01b03939190911b1c82166112ea818535611bf1565b9081611302575b50506112fd9150611f2d565b6112b8565b906113419161131082611b1e565b9461131b8684611af1565b9260208183600654168a8d8d51809a8195829463095ea7b360e01b845230908401611d0d565b03925af1801561140a5784846113d0946113966112fd9b7f894ce7cc354d2a39de53f8dab6b0ad8c5ac65641e68aa2154fdb88bcc387e3dd9a6113a1966113eb575b5082600654168360075416903090611d28565b309060065416611d28565b828a526010602052888a206113b7828254611abd565b905560116113c6828254611abd565b9055600c54611af1565b600c556113e1875192839283611d0d565b0390a138806112f1565b6114039060203d602011610c2457610c1481836119bc565b5038611383565b89513d8c823e3d90fd5b8480f35b6020608492519162461bcd60e51b8352820152602f60248201527f457363726f773a2063616e206f6e6c7920726566756e6420757020746f20746860448201526e19481b1bd8dad95908185b5bdd5b9d608a1b6064820152fd5b6020608492519162461bcd60e51b8352820152602760248201527f457363726f773a2063616e206f6e6c7920726566756e6420706f73697469766560448201526608185b5bdd5b9d60ca1b6064820152fd5b50503461021e578160031936011261021e576020906008549051908152f35b50503461021e578160031936011261021e57602090610217611b6e565b8284346104145780600319360112610414578151600380548083529083526020939284830192909183907fc2575a0e9e593c00f959f8c92f12db2869c3395a3b0502d05e2516446f71f85b90845b8181106115a857505050816115649103826119bc565b83519485948186019282875251809352850193925b82811061158857505050500390f35b83516001600160a01b031685528695509381019392810192600101611579565b82546001600160a01b03168452928801926001928301920161154e565b828434610414578160031936011261041457506102176020926115e6611640565b9035611bf1565b849134610361576020366003190112610361573563ffffffff60e01b81168091036103615760209250637965db0b60e01b811490811561162f575b5015158152f35b6301ffc9a760e01b14905083611628565b602435906001600160a01b038216820361165657565b600080fd5b600435906001600160a01b038216820361165657565b6000818152602090808252604092838220338352835260ff8483205416156116995750505050565b835167ffffffffffffffff9190336060820184811183821017611985578752602a82528582019287368537825115611971576030845382519160019283101561195d576078602185015360295b8381116118f357506118b1579087519460808601908682109082111761189d57885260428552868501956060368837855115611889576030875385518210156118895790607860218701536041915b81831161181b575050506117d9579385936117bf936117b060489461178776020b1b1b2b9b9a1b7b73a3937b61d1030b1b1b7bab73a1604d1b996117d59b519a8b978801525180926037880190611999565b8401917001034b99036b4b9b9b4b733903937b6329607d1b603784015251809386840190611999565b010360288101855201836119bc565b5162461bcd60e51b8152918291600483016119f4565b0390fd5b60648587519062461bcd60e51b825280600483015260248201527f537472696e67733a20686578206c656e67746820696e73756666696369656e746044820152fd5b909192600f81166010811015611875576f181899199a1a9b1b9c1cb0b131b232b360811b901a61184b8589611aca565b5360041c92801561186157600019019190611735565b634e487b7160e01b82526011600452602482fd5b634e487b7160e01b83526032600452602483fd5b634e487b7160e01b81526032600452602490fd5b634e487b7160e01b87526041600452602487fd5b60648789519062461bcd60e51b825280600483015260248201527f537472696e67733a20686578206c656e67746820696e73756666696369656e746044820152fd5b90600f81166010811015611949576f181899199a1a9b1b9c1cb0b131b232b360811b901a6119218387611aca565b5360041c90801561193557600019016116e6565b634e487b7160e01b88526011600452602488fd5b634e487b7160e01b89526032600452602489fd5b634e487b7160e01b87526032600452602487fd5b634e487b7160e01b86526032600452602486fd5b634e487b7160e01b86526041600452602486fd5b60005b8381106119ac5750506000910152565b818101518382015260200161199c565b90601f8019910116810190811067ffffffffffffffff8211176119de57604052565b634e487b7160e01b600052604160045260246000fd5b60409160208252611a148151809281602086015260208686019101611999565b601f01601f1916010190565b9060009180835282602052604083209160018060a01b03169182845260205260ff604084205416611a5057505050565b80835282602052604083208284526020526040832060ff1981541690557ff6391f5c32d9c69d2a47ea670b442974b53935d1edc7fd64eb21e047a839171b339380a4565b81810292918115918404141715611aa757565b634e487b7160e01b600052601160045260246000fd5b91908201809211611aa757565b908151811015611adb570160200190565b634e487b7160e01b600052603260045260246000fd5b91908203918211611aa757565b8115611b08570490565b634e487b7160e01b600052601260045260246000fd5b60085480821115611b67575b6064611b42611b398385611af1565b60095490611a94565b0490611b4e8184611af1565b821115611b5a57505090565b611b649250611abd565b90565b5080611b2a565b611b64611b80600a54600e5490611af1565b60115490611af1565b611b9d611b94611b6e565b600c5490611af1565b908115611bea5760018060a01b0316600052600b602052604060002054606481029080820460641490151715611aa757606491611be0611be692600a5490611afe565b90611a94565b0490565b5050600090565b9081158015611c3b575b611bea5760018060a01b0316600052600b602052604060002054606481029080820460641490151715611aa757606491611be0611be692600a5490611afe565b50600a5415611bfb565b15611c4c57565b60405162461bcd60e51b815260206004820152601f60248201527f457363726f773a2063616c6c6572206973206e6f74207468652061646d696e006044820152606490fd5b15611c9857565b60405162461bcd60e51b815260206004820152602f60248201527f457363726f773a2063616e206f6e6c792065646974207768696c65206e6f206660448201526e1d5b991cc8185c99481b1bd8dad959608a1b6064820152608490fd5b90816020910312611656575180151581036116565790565b6001600160a01b039091168152602081019190915260400190565b6040516323b872dd60e01b60208083019182526001600160a01b039485166024840152948416604483015260648083019690965294815267ffffffffffffffff959460a08201939092878511838610176119de57169060e08101848110888211176119de576040528484527f5361666545524332303a206c6f772d6c6576656c2063616c6c206661696c656460c0820152600080938192519082855af1903d15611e8f573d968711611e7b57611dff94959660405190611df188601f19601f84011601836119bc565b81528093873d92013e611e9c565b80519081611e0c57505050565b8280611e1c938301019101611cf5565b15611e245750565b6084906040519062461bcd60e51b82526004820152602a60248201527f5361666545524332303a204552433230206f7065726174696f6e20646964206e6044820152691bdd081cdd58d8d9595960b21b6064820152fd5b634e487b7160e01b83526041600452602483fd5b9150611dff939495506060915b91929015611efe5750815115611eb0575090565b3b15611eb95790565b60405162461bcd60e51b815260206004820152601d60248201527f416464726573733a2063616c6c20746f206e6f6e2d636f6e74726163740000006044820152606490fd5b825190915015611f115750805190602001fd5b60405162461bcd60e51b81529081906117d590600483016119f4565b6000198114611aa75760010190565b600354811015611adb57600360005260206000200190600090565b15611f5e57565b60405162461bcd60e51b815260206004820152602160248201527f457363726f773a2061646d696e20697320746865207a65726f206164647265736044820152607360f81b6064820152608490fdfe67ba03b899c1b0009c08c2717653a5a03a8730cc17a1a8c0c57b4728991672f3a49807205ce4d355092ef5a8a18f56e8913cf4a201fbe287825b095693c21775a2646970667358221220eacc5fbbddea7f38669987dd3d28839b05a0dc88621faa311c1341ed1edbab5c64736f6c63430008130033a49807205ce4d355092ef5a8a18f56e8913cf4a201fbe287825b095693c21775a26469706673582212206dea8ba0fba6dc70376c1c27405d4a1f9ae5fcfeb5cc854a1359e6f97b756c9564736f6c63430008130033",
  "linkReferences": {},
  "deployedLinkReferences": {}
}