{
  "_format": "hh-sol-artifact-1",
  "contractName": "EscrowManager",
  "sourceName": "contracts/EscrowManager.sol",
  "abi": [
    {
      "inputs": [
        {
          "internalType": "address",
          "name": "admin",
          "type": "address"
        },
        {
          "internalType": "address",
          "name": "feeRecipient",
          "type": "address"
        },
        {
          "internalType": "uint256",
          "name": "baseFee",
          "type": "uint256"
        },
        {
          "internalType": "uint256",
          "name": "percentageFee",
          "type": "uint256"
        }
      ],
      "stateMutability": "nonpayable",
      "type": "constructor"
    },
    {
      "anonymous": false,
      "inputs": [
        {
          "indexed": false,
          "internalType": "uint256",
          "name": "baseFee",
          "type": "uint256"
        }
      ],
      "name": "BaseFeeUpdated",
      "type": "event"
    },
    {
      "anonymous": false,
      "inputs": [
        {
          "indexed": true,
          "internalType": "uint256",
          "name": "id",
          "type": "uint256"
        },
        {
          "indexed": false,
          "internalType": "address",
          "name": "escrowAddress",
          "type": "address"
        },
        {
          "indexed": false,
          "internalType": "address",
          "name": "payee",
          "type": "address"
        },
        {
          "indexed": false,
          "internalType": "address",
          "name": "tokenAddress",
          "type": "address"
        },
        {
          "indexed": false,
          "internalType": "address",
          "name": "feeRecipientAddress",
          "type": "address"
        }
      ],
      "name": "EscrowRegistered",
      "type": "event"
    },
    {
      "anonymous": false,
      "inputs": [
        {
          "indexed": false,
          "internalType": "address",
          "name": "feeRecipient",
          "type": "address"
        }
      ],
      "name": "FeeRecipientUpdated",
      "type": "event"
    },
    {
      "anonymous": false,
      "inputs": [
        {
          "indexed": false,
          "internalType": "uint256",
          "name": "percentageFee",
          "type": "uint256"
        }
      ],
      "name": "PercentageFeeUpdated",
      "type": "event"
    },
    {
      "anonymous": false,
      "inputs": [
        {
          "indexed": true,
          "internalType": "bytes32",
          "name": "role",
          "type": "bytes32"
        },
        {
          "indexed": true,
          "internalType": "bytes32",
          "name": "previousAdminRole",
          "type": "bytes32"
        },
        {
          "indexed": true,
          "internalType": "bytes32",
          "name": "newAdminRole",
          "type": "bytes32"
        }
      ],
      "name": "RoleAdminChanged",
      "type": "event"
    },
    {
      "anonymous": false,
      "inputs": [
        {
          "indexed": true,
          "internalType": "bytes32",
          "name": "role",
          "type": "bytes32"
        },
        {
          "indexed": true,
          "internalType": "address",
          "name": "account",
          "type": "address"
        },
        {
          "indexed": true,
          "internalType": "address",
          "name": "sender",
          "type": "address"
        }
      ],
      "name": "RoleGranted",
      "type": "event"
    },
    {
      "anonymous": false,
      "inputs": [
        {
          "indexed": true,
          "internalType": "bytes32",
          "name": "role",
          "type": "bytes32"
        },
        {
          "indexed": true,
          "internalType": "address",
          "name": "account",
          "type": "address"
        },
        {
          "indexed": true,
          "internalType": "address",
          "name": "sender",
          "type": "address"
        }
      ],
      "name": "RoleRevoked",
      "type": "event"
    },
    {
      "inputs": [],
      "name": "ADMIN_ROLE",
      "outputs": [
        {
          "internalType": "bytes32",
          "name": "",
          "type": "bytes32"
        }
      ],
      "stateMutability": "view",
      "type": "function"
    },
    {
      "inputs": [],
      "name": "DEFAULT_ADMIN_ROLE",
      "outputs": [
        {
          "internalType": "bytes32",
          "name": "",
          "type": "bytes32"
        }
      ],
      "stateMutability": "view",
      "type": "function"
    },
    {
      "inputs": [
        {
          "internalType": "address",
          "name": "admin",
          "type": "address"
        }
      ],
      "name": "addAdmin",
      "outputs": [],
      "stateMutability": "nonpayable",
      "type": "function"
    },
    {
      "inputs": [],
      "name": "getBaseFee",
      "outputs": [
        {
          "internalType": "uint256",
          "name": "",
          "type": "uint256"
        }
      ],
      "stateMutability": "view",
      "type": "function"
    },
    {
      "inputs": [
        {
          "internalType": "uint256",
          "name": "id",
          "type": "uint256"
        }
      ],
      "name": "getEscrow",
      "outputs": [
        {
          "internalType": "contract Escrow",
          "name": "",
          "type": "address"
        }
      ],
      "stateMutability": "view",
      "type": "function"
    },
    {
      "inputs": [
        {
          "internalType": "uint256",
          "name": "shipmentId",
          "type": "uint256"
        }
      ],
      "name": "getEscrowByShipmentId",
      "outputs": [
        {
          "internalType": "contract Escrow",
          "name": "",
          "type": "address"
        }
      ],
      "stateMutability": "view",
      "type": "function"
    },
    {
      "inputs": [],
      "name": "getEscrowCounter",
      "outputs": [
        {
          "internalType": "uint256",
          "name": "",
          "type": "uint256"
        }
      ],
      "stateMutability": "view",
      "type": "function"
    },
    {
      "inputs": [],
      "name": "getFeeRecipient",
      "outputs": [
        {
          "internalType": "address",
          "name": "",
          "type": "address"
        }
      ],
      "stateMutability": "view",
      "type": "function"
    },
    {
      "inputs": [],
      "name": "getPercentageFee",
      "outputs": [
        {
          "internalType": "uint256",
          "name": "",
          "type": "uint256"
        }
      ],
      "stateMutability": "view",
      "type": "function"
    },
    {
      "inputs": [
        {
          "internalType": "bytes32",
          "name": "role",
          "type": "bytes32"
        }
      ],
      "name": "getRoleAdmin",
      "outputs": [
        {
          "internalType": "bytes32",
          "name": "",
          "type": "bytes32"
        }
      ],
      "stateMutability": "view",
      "type": "function"
    },
    {
      "inputs": [
        {
          "internalType": "bytes32",
          "name": "role",
          "type": "bytes32"
        },
        {
          "internalType": "address",
          "name": "account",
          "type": "address"
        }
      ],
      "name": "grantRole",
      "outputs": [],
      "stateMutability": "nonpayable",
      "type": "function"
    },
    {
      "inputs": [
        {
          "internalType": "bytes32",
          "name": "role",
          "type": "bytes32"
        },
        {
          "internalType": "address",
          "name": "account",
          "type": "address"
        }
      ],
      "name": "hasRole",
      "outputs": [
        {
          "internalType": "bool",
          "name": "",
          "type": "bool"
        }
      ],
      "stateMutability": "view",
      "type": "function"
    },
    {
      "inputs": [
        {
          "internalType": "uint256",
          "name": "shipmentId",
          "type": "uint256"
        },
        {
          "internalType": "address",
          "name": "payee",
          "type": "address"
        },
        {
          "internalType": "uint256",
          "name": "duration",
          "type": "uint256"
        },
        {
          "internalType": "address",
          "name": "tokenAddress",
          "type": "address"
        }
      ],
      "name": "registerEscrow",
      "outputs": [
        {
          "internalType": "contract Escrow",
          "name": "",
          "type": "address"
        }
      ],
      "stateMutability": "nonpayable",
      "type": "function"
    },
    {
      "inputs": [
        {
          "internalType": "address",
          "name": "admin",
          "type": "address"
        }
      ],
      "name": "removeAdmin",
      "outputs": [],
      "stateMutability": "nonpayable",
      "type": "function"
    },
    {
      "inputs": [
        {
          "internalType": "bytes32",
          "name": "role",
          "type": "bytes32"
        },
        {
          "internalType": "address",
          "name": "account",
          "type": "address"
        }
      ],
      "name": "renounceRole",
      "outputs": [],
      "stateMutability": "nonpayable",
      "type": "function"
    },
    {
      "inputs": [
        {
          "internalType": "bytes32",
          "name": "role",
          "type": "bytes32"
        },
        {
          "internalType": "address",
          "name": "account",
          "type": "address"
        }
      ],
      "name": "revokeRole",
      "outputs": [],
      "stateMutability": "nonpayable",
      "type": "function"
    },
    {
      "inputs": [
        {
          "internalType": "bytes4",
          "name": "interfaceId",
          "type": "bytes4"
        }
      ],
      "name": "supportsInterface",
      "outputs": [
        {
          "internalType": "bool",
          "name": "",
          "type": "bool"
        }
      ],
      "stateMutability": "view",
      "type": "function"
    },
    {
      "inputs": [
        {
          "internalType": "uint256",
          "name": "baseFee",
          "type": "uint256"
        }
      ],
      "name": "updateBaseFee",
      "outputs": [],
      "stateMutability": "nonpayable",
      "type": "function"
    },
    {
      "inputs": [
        {
          "internalType": "address",
          "name": "feeRecipient",
          "type": "address"
        }
      ],
      "name": "updateFeeRecipient",
      "outputs": [],
      "stateMutability": "nonpayable",
      "type": "function"
    },
    {
      "inputs": [
        {
          "internalType": "uint256",
          "name": "percentageFee",
          "type": "uint256"
        }
      ],
      "name": "updatePercentageFee",
      "outputs": [],
      "stateMutability": "nonpayable",
      "type": "function"
    }
  ],
  "bytecode": "0x608060409080825234620005f957608081620041028038038091620000258285620005fe565b833981010312620005f9576200003b8162000638565b906020916200004c83830162000638565b926060858401519301519360018060a01b038091169283156200059c576064861162000532577fa49807205ce4d355092ef5a8a18f56e8913cf4a201fbe287825b095693c21775600092818452838552888420338552855260ff898520541615620004fa575b81845283855288842094600191838388018181549155817fbd79b86ffe0ab8e8776151514217cd7cacd52c909f66475c3af44e129f0b00ff8980a460018060a01b03199633886002541617600255338752825260ff8b8720541615620004a757838652858252828b872001548087528b8720338852835260ff8c8820541615620001b157508386528582528a8620941693848652815260ff8a862054161562000177575b5050505050600354161760035560045560055551613a2790816200069b8239f35b82855284815289852090848652528884209060ff19825416179055600080516020620040c2833981519152339380a4388080808062000156565b8b51938c9250339188916001600160401b03916060880183811189821017620003df578652602a8852868801948636873788511562000493576030865388518310156200049357607860218a015360295b838111620004245750620003f35790855192608084019084821090821117620003df57865260428352868301936060368637835115620003cb57603085538351821015620003cb5790607860218501536041915b8183116200035857505050620003275792620002f46048620002e4979462000319946044989785519a8b93620002ba8b86019a7f416363657373436f6e74726f6c3a206163636f756e74200000000000000000008c5251809260378801906200064d565b8401917001034b99036b4b9b9b4b733903937b6329607d1b6037840152518093868401906200064d565b01036028810189520187620005fe565b5194859362461bcd60e51b85526004850152518092816024860152858501906200064d565b601f01601f19168101030190fd5b60648585519062461bcd60e51b82528060048301526024820152600080516020620040e28339815191526044820152fd5b909192600f81166010811015620003b7576f181899199a1a9b1b9c1cb0b131b232b360811b901a6200038b858762000672565b5360041c928015620003a35760001901919062000256565b634e487b7160e01b82526011600452602482fd5b634e487b7160e01b83526032600452602483fd5b634e487b7160e01b81526032600452602490fd5b634e487b7160e01b85526041600452602485fd5b60648787519062461bcd60e51b82528060048301526024820152600080516020620040e28339815191526044820152fd5b90600f811660108110156200047f576f181899199a1a9b1b9c1cb0b131b232b360811b901a62000455838c62000672565b5360041c9080156200046b576000190162000202565b634e487b7160e01b86526011600452602486fd5b634e487b7160e01b87526032600452602487fd5b634e487b7160e01b85526032600452602485fd5b8a5162461bcd60e51b815260048101839052602660248201527f457363726f774d616e616765723a2063616c6c6572206973206e6f74207468656044820152651030b236b4b760d11b6064820152608490fd5b8184528385528884203385528552888420600160ff19825416179055333383600080516020620040c28339815191528780a4620000b2565b865162461bcd60e51b815260048101849052603860248201527f457363726f774d616e616765723a2070657263656e746167652066656520636160448201527f6e6e6f742062652067726561746572207468616e2031303000000000000000006064820152608490fd5b865162461bcd60e51b815260048101849052603060248201527f457363726f774d616e616765723a2066656520726563697069656e742069732060448201526f746865207a65726f206164647265737360801b6064820152608490fd5b600080fd5b601f909101601f19168101906001600160401b038211908210176200062257604052565b634e487b7160e01b600052604160045260246000fd5b51906001600160a01b0382168203620005f957565b60005b838110620006615750506000910152565b818101518382015260200162000650565b90815181101562000684570160200190565b634e487b7160e01b600052603260045260246000fdfe608060408181526004803610156200001657600080fd5b600092833560e01c90816301ffc9a714620010235750806315e812ad14620010045780631785f53c1462000f2b57806322f772011462000ef7578063248a9ca31462000ecc5780632f2ff15d1462000e1d57806336568abe1462000d845780634be7b7fd1462000d635780634ccb20c01462000d385780635b5b6f561462000af2578063704802751462000a1557806375b238fc14620009e95780637d19e59614620009b55780638e69018614620007c757806391d14854146200077e57806396100671146200075d578063a217fddf1462000740578063b906e0801462000401578063d547741f14620003bc5763f160d369146200011457600080fd5b34620003b85760209081600319360112620003b457620001336200107c565b92600080516020620039d2833981519152855284835280852033865283526200016260ff828720541662001521565b6001600160a01b0393841691821562000355576003548581168414620002e0576001600160a01b031916831760035560019485805b620001cb575b5050507f7a7b5a0a132f9e0581eb8527f66eae9ee89c2a3e79d4ac7e41a1f1f4d48a7fc2935051908152a180f35b86548111620002da578088526006808752838784878c205416875192838092631295e44360e11b82525afa908115620002d05790899392918b9162000295575b501562000226575b506200021f906200157d565b9062000197565b908092508952865287828582205416803b1562000291578190602487518094819363f160d36960e01b83528b8a8401525af180156200028757916200021f91899362000275575b509062000213565b620002809062001436565b386200026d565b85513d8b823e3d90fd5b5080fd5b809450898092503d8311620002c8575b620002b1818362001461565b81010312620002c457889251386200020b565b8980fd5b503d620002a5565b86513d8c823e3d90fd5b6200019d565b508360a492519162461bcd60e51b8352820152604460248201527f457363726f774d616e616765723a206e657720636f6d6d697373696f6e20616460448201527f6472657373206973207468652073616d65206f66207468652063757272656e74606482015263206f6e6560e01b6084820152fd5b83608492519162461bcd60e51b8352820152603560248201527f457363726f774d616e616765723a20636f6d6d697373696f6e206164647265736044820152747320697320746865207a65726f206164647265737360581b6064820152fd5b8380fd5b8280fd5b509034620003b85780600319360112620003b857620003fe9135620003f86001620003e662001098565b938387528660205286200154620010af565b62001484565b80f35b509034620003b8576080366003190112620003b8576200042062001098565b92604435906064356001600160a01b0381811691829003620003b857600080516020620039d283398151915283528060209784895286852033865289526200046e60ff888720541662001521565b16928315620006ec578415620006a95782156200064d5760015494600186018096116200063a578560015582600354169088546005549089519361242e938486019486861067ffffffffffffffff87111762000626579160e09593918f8c90899795620015a489393087528601528d850152896060850152608084015260a083015260c082015203019082f09687156200061a578582526006895286822080546001600160a01b0319908116998516998a179091558135835260078a52878320805490911689179055873b1562000291578651637048027560e01b80825233828401529291908281602481838e5af180156200061057620005fe575b50836002541690893b15620003b85788519384528301528082602481838c5af1908115620005f3575091608093917f513e71eb07f5ff0507ca89cdc7596aa28266afa25415c6d14fb8964f529578e89593620005e1575b50600354169086519288845289840152868301526060820152a251908152f35b620005ec9062001436565b38620005c1565b8751903d90823e3d90fd5b620006099062001436565b386200056a565b89513d85823e3d90fd5b508551903d90823e3d90fd5b50634e487b7160e01b875260418d52602487fd5b634e487b7160e01b825260118852602482fd5b855162461bcd60e51b8152808801899052603060248201527f457363726f774d616e616765723a20746f6b656e20616464726573732069732060448201526f746865207a65726f206164647265737360801b6064820152608490fd5b855162461bcd60e51b8152808801899052601f60248201527f457363726f774d616e616765723a206475726174696f6e206973207a65726f006044820152606490fd5b855162461bcd60e51b8152808801899052602860248201527f457363726f774d616e616765723a20706179656520697320746865207a65726f604482015267206164647265737360c01b6064820152608490fd5b505034620002915781600319360112620002915751908152602090f35b50503462000291578160031936011262000291576020906005549051908152f35b5034620003b85781600319360112620003b8578160209360ff92620007a262001098565b903582528186528282206001600160a01b039091168252855220549151911615158152f35b5034620003b85760209182600319360112620003b4578135600080516020620039d2833981519152855284845281852033865284526200080d60ff838720541662001521565b825481146200094d57808355845b600154811015620009205780865285600680875260018060a01b03908688838886205416885192838092631295e44360e11b82525afa90811562000916578491620008e3575b50156200087d575b50505062000877906200157d565b6200081b565b83835287528482205416803b1562000291578190602486518094819363473480c360e11b8352888b8401525af18015620008d95790620008779291620008c7575b87919262000869565b620008d29062001436565b38620008be565b84513d89823e3d90fd5b90508881813d83116200090e575b620008fd818362001461565b81010312620003b457513862000861565b503d620008f1565b87513d86823e3d90fd5b857f803bee7e92bbc6ae7a1551f9f4ed3e31a8ea8df32e93332f41b0028f1091f9c386848651908152a180f35b5091608492519162461bcd60e51b8352820152603a60248201527f457363726f774d616e616765723a206e6577206261736520666565206973207460448201527f68652073616d65206f66207468652063757272656e74206f6e650000000000006064820152fd5b5034620003b8576020366003190112620003b85735825260066020908152918190205490516001600160a01b039091168152f35b505034620002915781600319360112620002915760209051600080516020620039d28339815191528152f35b505034620002915760209081600319360112620003b85762000a366200107c565b90600080516020620039d283398151915292838552848152818520338652815262000a6760ff838720541662001521565b83855284815262000a7e60018387200154620010af565b8385528481528185206001600160a01b039093168086529281528185205460ff161562000aa9578480f35b83855284815281852083865290528320805460ff1916600117905533917f2f8788117e7eff1d82e926ec794901d17c78024a50270940304540a733656f0d8480a4388080808480f35b5034620003b85760209182600319360112620003b4578135600080516020620039d28339815191528552848452818520338652845262000b3860ff838720541662001521565b600554811462000cd2576064811162000c6f5780600555845b60015481101562000c425780865285600680875260018060a01b03908688838886205416885192838092631295e44360e11b82525afa9081156200091657849162000c0f575b501562000bb3575b50505062000bad906200157d565b62000b51565b83835287528482205416803b15620002915781906024865180948193632dadb7ab60e11b8352888b8401525af18015620008d9579062000bad929162000bfd575b87919262000b9f565b62000c089062001436565b3862000bf4565b90508881813d831162000c3a575b62000c29818362001461565b81010312620003b457513862000b97565b503d62000c1d565b857f23f687f210688a3ee1ab47f124ec8d14e79c872beee466e8294120f2377e070886848651908152a180f35b5091608492519162461bcd60e51b8352820152603860248201527f457363726f774d616e616765723a2070657263656e746167652066656520636160448201527706e6e6f742062652067726561746572207468616e203130360441b6064820152fd5b5060849281519262461bcd60e51b845283015260248201527f457363726f774d616e616765723a206e65772070657263656e7461676520666560448201527f65206973207468652073616d65206f66207468652063757272656e74206f6e656064820152fd5b505034620002915781600319360112620002915760035490516001600160a01b039091168152602090f35b50503462000291578160031936011262000291576020906001549051908152f35b50829034620002915782600319360112620002915762000da362001098565b90336001600160a01b0383160362000dc25790620003fe913562001484565b608490602085519162461bcd60e51b8352820152602f60248201527f416363657373436f6e74726f6c3a2063616e206f6e6c792072656e6f756e636560448201526e103937b632b9903337b91039b2b63360891b6064820152fd5b5034620003b85781600319360112620003b857359062000e3c62001098565b908284528360205262000e5560018286200154620010af565b82845260208481528185206001600160a01b039093168086529290528084205460ff161562000e82578380f35b828452836020528084208285526020528320600160ff1982541617905533917f2f8788117e7eff1d82e926ec794901d17c78024a50270940304540a733656f0d8480a43880808380f35b5034620003b8576020366003190112620003b857816020936001923581528085522001549051908152f35b5034620003b8576020366003190112620003b85735825260076020908152918190205490516001600160a01b039091168152f35b505034620002915760209081600319360112620003b85762000f4c6200107c565b90600080516020620039d283398151915292838552848152818520338652815262000f7d60ff838720541662001521565b83855284815262000f9460018387200154620010af565b8385528481528185206001600160a01b039093168086529281528185205460ff1662000fbe578480f35b83855284815281852083865290528320805460ff1916905533917ff6391f5c32d9c69d2a47ea670b442974b53935d1edc7fd64eb21e047a839171b8480a4388080808480f35b5034620003b85782600319360112620003b85760209250549051908152f35b92505034620003b8576020366003190112620003b8573563ffffffff60e01b8116809103620003b85760209250637965db0b60e01b81149081156200106a575b5015158152f35b6301ffc9a760e01b1490503862001063565b600435906001600160a01b03821682036200109357565b600080fd5b602435906001600160a01b03821682036200109357565b600090808252602090828252604090818420338552835260ff828520541615620010d95750505050565b81519367ffffffffffffffff336060870182811188821017620013fd578552602a87528587019385368637875115620013e95760308553875191600192831015620013d557607860218a015360295b8381116200136657506200132457908551926080840190848210908211176200131057865260428352868301936060368637835115620012fc57603085538351821015620012fc5790607860218501536041915b818311620012895750505062001247579262001214604862001204979462001239946044989785519a8b93620011da8b86019a76020b1b1b2b9b9a1b7b73a3937b61d1030b1b1b7bab73a1604d1b8c52518092603788019062001411565b8401917001034b99036b4b9b9b4b733903937b6329607d1b60378401525180938684019062001411565b0103602881018952018762001461565b5194859362461bcd60e51b855260048501525180928160248601528585019062001411565b601f01601f19168101030190fd5b60648585519062461bcd60e51b825280600483015260248201527f537472696e67733a20686578206c656e67746820696e73756666696369656e746044820152fd5b909192600f81166010811015620012e8576f181899199a1a9b1b9c1cb0b131b232b360811b901a620012bc8587620014f9565b5360041c928015620012d4576000190191906200117c565b634e487b7160e01b82526011600452602482fd5b634e487b7160e01b83526032600452602483fd5b634e487b7160e01b81526032600452602490fd5b634e487b7160e01b85526041600452602485fd5b60648787519062461bcd60e51b825280600483015260248201527f537472696e67733a20686578206c656e67746820696e73756666696369656e746044820152fd5b90600f81166010811015620013c1576f181899199a1a9b1b9c1cb0b131b232b360811b901a62001397838c620014f9565b5360041c908015620013ad576000190162001128565b634e487b7160e01b86526011600452602486fd5b634e487b7160e01b87526032600452602487fd5b634e487b7160e01b85526032600452602485fd5b634e487b7160e01b84526032600452602484fd5b634e487b7160e01b84526041600452602484fd5b60005b838110620014255750506000910152565b818101518382015260200162001414565b67ffffffffffffffff81116200144b57604052565b634e487b7160e01b600052604160045260246000fd5b90601f8019910116810190811067ffffffffffffffff8211176200144b57604052565b9060009180835282602052604083209160018060a01b03169182845260205260ff604084205416620014b557505050565b80835282602052604083208284526020526040832060ff1981541690557ff6391f5c32d9c69d2a47ea670b442974b53935d1edc7fd64eb21e047a839171b339380a4565b9081518110156200150b570160200190565b634e487b7160e01b600052603260045260246000fd5b156200152957565b60405162461bcd60e51b815260206004820152602660248201527f457363726f774d616e616765723a2063616c6c6572206973206e6f74207468656044820152651030b236b4b760d11b6064820152608490fd5b60001981146200158d5760010190565b634e487b7160e01b600052601160045260246000fdfe608034620003da57601f6200242e38819003918201601f191683019291906001600160401b03841183851017620003df578160e09284926040968752833981010312620003da576200005181620003f5565b60209162000061838201620003f5565b848201516200007360608401620003f5565b906200008260808501620003f5565b9060c060a08601519501519560018060a01b038091169485156200038c5781169384156200033e578215620002fa578116928315620002a457169384156200024e5760648711620001f0577fa49807205ce4d355092ef5a8a18f56e8913cf4a201fbe287825b095693c217759060009889918383528282528b8320818452825260ff8c8420541615620001a6575b508282525260018989200198818a549a555198817fbd79b86ffe0ab8e8776151514217cd7cacd52c909f66475c3af44e129f0b00ff8a80a460018060a01b0319928084600154161760015583600254161760025542600455600555816006541617600655600754161760075560085560095580600a5580600c5580600d5580600e5580600f5560115561202390816200040b8239f35b8383528282528b832081845282528b8320805460ff191660011790553390847f2f8788117e7eff1d82e926ec794901d17c78024a50270940304540a733656f0d8580a43862000110565b885162461bcd60e51b815260048101899052603160248201527f457363726f773a2070657263656e74616765206665652063616e6e6f7420626560448201527002067726561746572207468616e2031303607c1b6064820152608490fd5b885162461bcd60e51b815260048101899052602960248201527f457363726f773a2066656520726563697069656e7420697320746865207a65726044820152686f206164647265737360b81b6064820152608490fd5b895162461bcd60e51b8152600481018a9052602960248201527f457363726f773a20746f6b656e206164647265737320697320746865207a65726044820152686f206164647265737360b81b6064820152608490fd5b895162461bcd60e51b8152600481018a9052601860248201527f457363726f773a206475726174696f6e206973207a65726f00000000000000006044820152606490fd5b895162461bcd60e51b8152600481018a9052602160248201527f457363726f773a20706179656520697320746865207a65726f206164647265736044820152607360f81b6064820152608490fd5b895162461bcd60e51b8152600481018a9052602160248201527f457363726f773a2061646d696e20697320746865207a65726f206164647265736044820152607360f81b6064820152608490fd5b600080fd5b634e487b7160e01b600052604160045260246000fd5b51906001600160a01b0382168203620003da5756fe608060408181526004918236101561001657600080fd5b600092833560e01c91826301ffc9a7146115ed575081630eb21530146115c55781631055d7081461150057816310fe9ae81461116557816312065fe0146114e357816315e812ad146114c457816315f1bbfe146112655781631785f53c1461118e57816321df0da714611165578163248a9ca31461113b578163252bc8861461111c5781632e1a7d4d14610e785781632f13b60c14610e4b5781632f2ff15d14610da257816336568abe14610d105781634ccb20c014610ce75781634d68282f14610ae85781635b5b6f5614610a2c5781635f8d96de14610a095781636a5b5e7c146109ea5781636e553f6514610833578163704802751461075857816375b238fc1461072f5781638401b96814610710578163893d20e8146106e75781638c8f95fb146105cd5781638e6901861461057957816391d1485414610533578163961006711461051457816396e9be63146104f55781639a5569a7146104d6578163a217fddf146104bb578163ad2e8c9b1461049c578163c79256231461047e578163cd44673514610455578163d547741f14610417578163d5a06d4c146103f4578163db7ac399146103d5578163e150ff391461039d578163e9081ec714610365578163f160d36914610222575063f6777175146101f357600080fd5b3461021e57602036600319011261021e5760209061021761021261165b565b611b89565b9051908152f35b5080fd5b9050346103615760203660031901126103615761023d61165b565b90600080516020611fce83398151915284528360205282842033855260205261026b60ff8486205416611c45565b610277600c5415611c91565b6001600160a01b0391821692831561030c5760075492831684146102a85750506001600160a01b0319161760075580f35b906020608492519162461bcd60e51b8352820152603860248201527f457363726f773a206e65772066656520726563697069656e74206973207468656044820152772073616d65206f66207468652063757272656e74206f6e6560401b6064820152fd5b906020608492519162461bcd60e51b8352820152602960248201527f457363726f773a2066656520726563697069656e7420697320746865207a65726044820152686f206164647265737360b81b6064820152fd5b8280fd5b50503461021e57602036600319011261021e5760209181906001600160a01b0361038d61165b565b168152600b845220549051908152f35b50503461021e57602036600319011261021e5760209181906001600160a01b036103c561165b565b1681526010845220549051908152f35b50503461021e578160031936011261021e57602090600a549051908152f35b828434610414576020366003190112610414575061021760209235611b1e565b80fd5b91905034610361578060031936011261036157610452913561044d600161043c611640565b938387528660205286200154611671565b611a20565b80f35b50503461021e578160031936011261021e5760025490516001600160a01b039091168152602090f35b90503461036157826003193601126103615760209250549051908152f35b50503461021e578160031936011261021e576020906005549051908152f35b50503461021e578160031936011261021e5751908152602090f35b50503461021e578160031936011261021e57602090600e549051908152f35b50503461021e578160031936011261021e57602090600f549051908152f35b50503461021e578160031936011261021e576020906009549051908152f35b9050346103615781600319360112610361578160209360ff92610554611640565b903582528186528282206001600160a01b039091168252855220549151911615158152f35b919050346103615760203660031901126103615760ff6105ba91600080516020611fce83398151915285528460205280852033865260205284205416611c45565b6105c6600c5415611c91565b3560085580f35b8391503461021e57602036600319011261021e57803590600080516020611fce83398151915283528260205283832033845260205261061160ff8585205416611c45565b811561069657600c54906106258383611abd565b61062d611b6e565b1061064357509061063d91611abd565b600c5580f35b608490602086519162461bcd60e51b8352820152602760248201527f457363726f773a2063616e206f6e6c79206c6f636b20757020746f207468652060448201526662616c616e636560c81b6064820152fd5b608490602085519162461bcd60e51b8352820152602560248201527f457363726f773a2063616e206f6e6c79206c6f636b20706f73697469766520616044820152641b5bdd5b9d60da1b6064820152fd5b50503461021e578160031936011261021e5760015490516001600160a01b039091168152602090f35b50503461021e578160031936011261021e57602090600d549051908152f35b50503461021e578160031936011261021e5760209051600080516020611fce8339815191528152f35b50503461021e576020806003193601126103615761077461165b565b91600080516020611fce8339815191529283855284835281852033865283526107a260ff8387205416611c45565b6001600160a01b0316916107b7831515611f57565b8385528481526107cc60018387200154611671565b838552848152818520838652815260ff8286205416156107ea578480f35b83855284815281852083865290528320805460ff1916600117905533917f2f8788117e7eff1d82e926ec794901d17c78024a50270940304540a733656f0d8480a4388080808480f35b83833461021e578060031936011261021e57823590610850611640565b90600080516020611fce83398151915284528360205280842033855260205261087e60ff8286205416611c45565b82156109975760018060a01b0361089c848260065416853091611d28565b821694858552600b602052818520541561090f575b506109099084957f85e097789c3ac56c0d1376d977138b099d5ccbdf055680a82bb03e6fb52bcbe89552600b6020528086206108ee858254611abd565b90556108fc84600a54611abd565b600a555192839283611d0d565b0390a180f35b94600354600160401b811015610984577f85e097789c3ac56c0d1376d977138b099d5ccbdf055680a82bb03e6fb52bcbe89596509061097b8461095c846001610909979601600355611f3c565b90919082549060031b9160018060a01b03809116831b921b1916179055565b959450906108b1565b634e487b7160e01b865260418752602486fd5b5162461bcd60e51b8152602081860152602860248201527f457363726f773a2063616e206f6e6c79206465706f73697420706f73697469766044820152671948185b5bdd5b9d60c21b6064820152608490fd5b50503461021e578160031936011261021e576020906011549051908152f35b828434610414578060031936011261041457506102176020925460055490611abd565b90503461036157602036600319011261036157803591600080516020611fce833981519152845283602052808420338552602052610a6f60ff8286205416611c45565b610a7b600c5415611c91565b60648311610a8b57505060095580f35b906020608492519162461bcd60e51b8352820152603160248201527f457363726f773a2070657263656e74616765206665652063616e6e6f7420626560448201527002067726561746572207468616e2031303607c1b6064820152fd5b9050346103615760209081600319360112610ce3578035600080516020611fce83398151915285528483528385203386528352610b2a60ff8587205416611c45565b8015610c9057600c548111610c3557610b4281611b1e565b610b4c8183611af1565b93610b7c818460018060a01b03968760065416908b8b5180968195829463095ea7b360e01b845230908401611d0d565b03925af18015610c2b57600080516020611fae833981519152979593610beb936109099693610bbe93610bfd575b505084600654168560075416903090611d28565b610bd48684600654168560025416903090611d28565b610be081600c54611af1565b600c55600e54611abd565b600e5560025416915192839283611d0d565b81610c1c92903d10610c24575b610c1481836119bc565b810190611cf5565b503880610baa565b503d610c0a565b87513d8a823e3d90fd5b50915162461bcd60e51b815291820152603060248201527f457363726f773a2063616e206f6e6c792072656c6561736520757020746f207460448201526f1a19481b1bd8dad95908185b5bdd5b9d60821b6064820152608490fd5b50915162461bcd60e51b815291820152602860248201527f457363726f773a2063616e206f6e6c792072656c6561736520706f73697469766044820152671948185b5bdd5b9d60c21b6064820152608490fd5b8380fd5b50503461021e578160031936011261021e5760075490516001600160a01b039091168152602090f35b8391503461021e578260031936011261021e57610d2b611640565b90336001600160a01b03831603610d4757906104529135611a20565b608490602085519162461bcd60e51b8352820152602f60248201527f416363657373436f6e74726f6c3a2063616e206f6e6c792072656e6f756e636560448201526e103937b632b9903337b91039b2b63360891b6064820152fd5b9050346103615781600319360112610361573590610dbe611640565b9082845283602052610dd560018286200154611671565b82845260208481528185206001600160a01b039093168086529290528084205460ff1615610e01578380f35b828452836020528084208285526020528320600160ff1982541617905533917f2f8788117e7eff1d82e926ec794901d17c78024a50270940304540a733656f0d8480a43880808380f35b82843461041457806003193601126104145750610e6e6020925460055490611abd565b4210159051908152f35b919050346103615760209182600319360112610ce35780359283156110ca57610ea033611b89565b841161106a57600654835163095ea7b360e01b81526001600160a01b039291829082908516818a81610ed58c308c8401611d0d565b03925af180156110605790600b9291611043575b50610efa8633308660065416611d28565b338752818152848720610f0e878254611af1565b9055338752528285205415610f4d575b84600080516020611fae8339815191526109098686610f3f82600a54611af1565b600a55519182913383611d0d565b92909391825b60038054808310156110245786610f6984611f3c565b905490841b1c163314610f86575050610f8190611f2d565b610f53565b9091600096939495961991828101908111611011579061095c85610fac610fb994611f3c565b905490871b1c1691611f3c565b81548015610ffe57600080516020611fae8339815191529697509061090995949392910191610fe783611f3c565b9091825491841b1b19169055555b91819350610f1e565b634e487b7160e01b875260318852602487fd5b634e487b7160e01b885260118952602488fd5b505050610909929450600080516020611fae8339815191529350610ff5565b61105990823d8411610c2457610c1481836119bc565b5038610ee9565b85513d89823e3d90fd5b608492519162461bcd60e51b8352820152603760248201527f457363726f773a2063616e206f6e6c7920776974686472617720757020746f206044820152761d1a19481dda5d1a191c985dd8589b1948185b5bdd5b9d604a1b6064820152fd5b608492519162461bcd60e51b8352820152602960248201527f457363726f773a2063616e206f6e6c7920776974686472617720706f736974696044820152681d9948185b5bdd5b9d60ba1b6064820152fd5b50503461021e578160031936011261021e57602090600c549051908152f35b90503461036157602036600319011261036157816020936001923581528085522001549051908152f35b50503461021e578160031936011261021e5760065490516001600160a01b039091168152602090f35b50503461021e57602080600319360112610361576111aa61165b565b91600080516020611fce8339815191529283855284835281852033865283526111d860ff8387205416611c45565b6001600160a01b0316916111ed831515611f57565b83855284815261120260018387200154611671565b838552848152818520838652815260ff828620541661121f578480f35b83855284815281852083865290528320805460ff1916905533917ff6391f5c32d9c69d2a47ea670b442974b53935d1edc7fd64eb21e047a839171b8480a4388080808480f35b90503461036157602036600319011261036157600080516020611fce8339815191528352826020528183203384526020526112a560ff8385205416611c45565b80351561147257600c5481351161141857825b6003908154811015611414576112cd81611f3c565b90546001600160a01b03939190911b1c82166112ea818535611bf1565b9081611302575b50506112fd9150611f2d565b6112b8565b906113419161131082611b1e565b9461131b8684611af1565b9260208183600654168a8d8d51809a8195829463095ea7b360e01b845230908401611d0d565b03925af1801561140a5784846113d0946113966112fd9b7f894ce7cc354d2a39de53f8dab6b0ad8c5ac65641e68aa2154fdb88bcc387e3dd9a6113a1966113eb575b5082600654168360075416903090611d28565b309060065416611d28565b828a526010602052888a206113b7828254611abd565b905560116113c6828254611abd565b9055600c54611af1565b600c556113e1875192839283611d0d565b0390a138806112f1565b6114039060203d602011610c2457610c1481836119bc565b5038611383565b89513d8c823e3d90fd5b8480f35b6020608492519162461bcd60e51b8352820152602f60248201527f457363726f773a2063616e206f6e6c7920726566756e6420757020746f20746860448201526e19481b1bd8dad95908185b5bdd5b9d608a1b6064820152fd5b6020608492519162461bcd60e51b8352820152602760248201527f457363726f773a2063616e206f6e6c7920726566756e6420706f73697469766560448201526608185b5bdd5b9d60ca1b6064820152fd5b50503461021e578160031936011261021e576020906008549051908152f35b50503461021e578160031936011261021e57602090610217611b6e565b8284346104145780600319360112610414578151600380548083529083526020939284830192909183907fc2575a0e9e593c00f959f8c92f12db2869c3395a3b0502d05e2516446f71f85b90845b8181106115a857505050816115649103826119bc565b83519485948186019282875251809352850193925b82811061158857505050500390f35b83516001600160a01b031685528695509381019392810192600101611579565b82546001600160a01b03168452928801926001928301920161154e565b828434610414578160031936011261041457506102176020926115e6611640565b9035611bf1565b849134610361576020366003190112610361573563ffffffff60e01b81168091036103615760209250637965db0b60e01b811490811561162f575b5015158152f35b6301ffc9a760e01b14905083611628565b602435906001600160a01b038216820361165657565b600080fd5b600435906001600160a01b038216820361165657565b6000818152602090808252604092838220338352835260ff8483205416156116995750505050565b835167ffffffffffffffff9190336060820184811183821017611985578752602a82528582019287368537825115611971576030845382519160019283101561195d576078602185015360295b8381116118f357506118b1579087519460808601908682109082111761189d57885260428552868501956060368837855115611889576030875385518210156118895790607860218701536041915b81831161181b575050506117d9579385936117bf936117b060489461178776020b1b1b2b9b9a1b7b73a3937b61d1030b1b1b7bab73a1604d1b996117d59b519a8b978801525180926037880190611999565b8401917001034b99036b4b9b9b4b733903937b6329607d1b603784015251809386840190611999565b010360288101855201836119bc565b5162461bcd60e51b8152918291600483016119f4565b0390fd5b60648587519062461bcd60e51b825280600483015260248201527f537472696e67733a20686578206c656e67746820696e73756666696369656e746044820152fd5b909192600f81166010811015611875576f181899199a1a9b1b9c1cb0b131b232b360811b901a61184b8589611aca565b5360041c92801561186157600019019190611735565b634e487b7160e01b82526011600452602482fd5b634e487b7160e01b83526032600452602483fd5b634e487b7160e01b81526032600452602490fd5b634e487b7160e01b87526041600452602487fd5b60648789519062461bcd60e51b825280600483015260248201527f537472696e67733a20686578206c656e67746820696e73756666696369656e746044820152fd5b90600f81166010811015611949576f181899199a1a9b1b9c1cb0b131b232b360811b901a6119218387611aca565b5360041c90801561193557600019016116e6565b634e487b7160e01b88526011600452602488fd5b634e487b7160e01b89526032600452602489fd5b634e487b7160e01b87526032600452602487fd5b634e487b7160e01b86526032600452602486fd5b634e487b7160e01b86526041600452602486fd5b60005b8381106119ac5750506000910152565b818101518382015260200161199c565b90601f8019910116810190811067ffffffffffffffff8211176119de57604052565b634e487b7160e01b600052604160045260246000fd5b60409160208252611a148151809281602086015260208686019101611999565b601f01601f1916010190565b9060009180835282602052604083209160018060a01b03169182845260205260ff604084205416611a5057505050565b80835282602052604083208284526020526040832060ff1981541690557ff6391f5c32d9c69d2a47ea670b442974b53935d1edc7fd64eb21e047a839171b339380a4565b81810292918115918404141715611aa757565b634e487b7160e01b600052601160045260246000fd5b91908201809211611aa757565b908151811015611adb570160200190565b634e487b7160e01b600052603260045260246000fd5b91908203918211611aa757565b8115611b08570490565b634e487b7160e01b600052601260045260246000fd5b60085480821115611b67575b6064611b42611b398385611af1565b60095490611a94565b0490611b4e8184611af1565b821115611b5a57505090565b611b649250611abd565b90565b5080611b2a565b611b64611b80600a54600e5490611af1565b60115490611af1565b611b9d611b94611b6e565b600c5490611af1565b908115611bea5760018060a01b0316600052600b602052604060002054606481029080820460641490151715611aa757606491611be0611be692600a5490611afe565b90611a94565b0490565b5050600090565b9081158015611c3b575b611bea5760018060a01b0316600052600b602052604060002054606481029080820460641490151715611aa757606491611be0611be692600a5490611afe565b50600a5415611bfb565b15611c4c57565b60405162461bcd60e51b815260206004820152601f60248201527f457363726f773a2063616c6c6572206973206e6f74207468652061646d696e006044820152606490fd5b15611c9857565b60405162461bcd60e51b815260206004820152602f60248201527f457363726f773a2063616e206f6e6c792065646974207768696c65206e6f206660448201526e1d5b991cc8185c99481b1bd8dad959608a1b6064820152608490fd5b90816020910312611656575180151581036116565790565b6001600160a01b039091168152602081019190915260400190565b6040516323b872dd60e01b60208083019182526001600160a01b039485166024840152948416604483015260648083019690965294815267ffffffffffffffff959460a08201939092878511838610176119de57169060e08101848110888211176119de576040528484527f5361666545524332303a206c6f772d6c6576656c2063616c6c206661696c656460c0820152600080938192519082855af1903d15611e8f573d968711611e7b57611dff94959660405190611df188601f19601f84011601836119bc565b81528093873d92013e611e9c565b80519081611e0c57505050565b8280611e1c938301019101611cf5565b15611e245750565b6084906040519062461bcd60e51b82526004820152602a60248201527f5361666545524332303a204552433230206f7065726174696f6e20646964206e6044820152691bdd081cdd58d8d9595960b21b6064820152fd5b634e487b7160e01b83526041600452602483fd5b9150611dff939495506060915b91929015611efe5750815115611eb0575090565b3b15611eb95790565b60405162461bcd60e51b815260206004820152601d60248201527f416464726573733a2063616c6c20746f206e6f6e2d636f6e74726163740000006044820152606490fd5b825190915015611f115750805190602001fd5b60405162461bcd60e51b81529081906117d590600483016119f4565b6000198114611aa75760010190565b600354811015611adb57600360005260206000200190600090565b15611f5e57565b60405162461bcd60e51b815260206004820152602160248201527f457363726f773a2061646d696e20697320746865207a65726f206164647265736044820152607360f81b6064820152608490fdfe67ba03b899c1b0009c08c2717653a5a03a8730cc17a1a8c0c57b4728991672f3a49807205ce4d355092ef5a8a18f56e8913cf4a201fbe287825b095693c21775a2646970667358221220eacc5fbbddea7f38669987dd3d28839b05a0dc88621faa311c1341ed1edbab5c64736f6c63430008130033a49807205ce4d355092ef5a8a18f56e8913cf4a201fbe287825b095693c21775a2646970667358221220acd4273c9e3a273ff3c48918af75fe9445adb80e5bb80bac8f6d972b350270e064736f6c634300081300332f8788117e7eff1d82e926ec794901d17c78024a50270940304540a733656f0d537472696e67733a20686578206c656e67746820696e73756666696369656e74",
  "linkReferences": {},
  "deployedLinkReferences": {}
}